{
  "contractName": "Anchor",
  "compilerversion": "v0.5.0+commit.1d4f565a",
  "contractaddress": "0xe322ed07e235a6501bd017ae9ea059b12723c55c",
  "txhash": "0xaaae864d3b5b5a81ea7f54d877fc65ddde856577a8646f9a0f011fbb610f463a",
  "abi": [
    {
      "constant": true,
      "inputs": [],
      "name": "organization",
      "outputs": [
        {
          "name": "",
          "type": "address"
        }
      ],
      "payable": false,
      "stateMutability": "view",
      "type": "function"
    },
    {
      "constant": true,
      "inputs": [],
      "name": "coAnchor",
      "outputs": [
        {
          "name": "",
          "type": "address"
        }
      ],
      "payable": false,
      "stateMutability": "view",
      "type": "function"
    },
    {
      "inputs": [
        {
          "name": "_remoteChainId",
          "type": "uint256"
        },
        {
          "name": "_blockHeight",
          "type": "uint256"
        },
        {
          "name": "_stateRoot",
          "type": "bytes32"
        },
        {
          "name": "_maxStateRoots",
          "type": "uint256"
        },
        {
          "name": "_organization",
          "type": "address"
        }
      ],
      "payable": false,
      "stateMutability": "nonpayable",
      "type": "constructor"
    },
    {
      "anonymous": false,
      "inputs": [
        {
          "indexed": false,
          "name": "_blockHeight",
          "type": "uint256"
        },
        {
          "indexed": false,
          "name": "_stateRoot",
          "type": "bytes32"
        }
      ],
      "name": "StateRootAvailable",
      "type": "event"
    },
    {
      "constant": false,
      "inputs": [
        {
          "name": "_coAnchor",
          "type": "address"
        }
      ],
      "name": "setCoAnchorAddress",
      "outputs": [
        {
          "name": "success_",
          "type": "bool"
        }
      ],
      "payable": false,
      "stateMutability": "nonpayable",
      "type": "function"
    },
    {
      "constant": true,
      "inputs": [
        {
          "name": "_blockHeight",
          "type": "uint256"
        }
      ],
      "name": "getStateRoot",
      "outputs": [
        {
          "name": "stateRoot_",
          "type": "bytes32"
        }
      ],
      "payable": false,
      "stateMutability": "view",
      "type": "function"
    },
    {
      "constant": true,
      "inputs": [],
      "name": "getLatestStateRootBlockHeight",
      "outputs": [
        {
          "name": "height_",
          "type": "uint256"
        }
      ],
      "payable": false,
      "stateMutability": "view",
      "type": "function"
    },
    {
      "constant": false,
      "inputs": [
        {
          "name": "_blockHeight",
          "type": "uint256"
        },
        {
          "name": "_stateRoot",
          "type": "bytes32"
        }
      ],
      "name": "anchorStateRoot",
      "outputs": [
        {
          "name": "success_",
          "type": "bool"
        }
      ],
      "payable": false,
      "stateMutability": "nonpayable",
      "type": "function"
    },
    {
      "constant": true,
      "inputs": [],
      "name": "getRemoteChainId",
      "outputs": [
        {
          "name": "remoteChainId_",
          "type": "uint256"
        }
      ],
      "payable": false,
      "stateMutability": "view",
      "type": "function"
    }
  ],
  "bytecode": "0x608060405234801561001057600080fd5b5060405160a080610a91833981018060405260a081101561003057600080fd5b508051602082015160408301516060840151608090940151929391929091908181600160a060020a03811615156100ee57604080517f08c379a000000000000000000000000000000000000000000000000000000000815260206004820152602f60248201527f4f7267616e697a6174696f6e20636f6e74726163742061646472657373206d7560448201527f7374206e6f74206265207a65726f2e0000000000000000000000000000000000606482015290519081900360840190fd5b60008054600160a060020a031916600160a060020a039290921691909117815581116101c757604080517f08c379a000000000000000000000000000000000000000000000000000000000815260206004820152604d60248201527f546865206d6178206e756d626572206f66206974656d7320746f2073746f726560448201527f20696e20612063697263756c617220627566666572206d75737420626520677260648201527f6561746572207468616e20302e00000000000000000000000000000000000000608482015290519081900360a40190fd5b806101d36001826102ea565b505084151561024357604080517f08c379a000000000000000000000000000000000000000000000000000000000815260206004820152601e60248201527f52656d6f746520636861696e204964206d757374206e6f7420626520302e0000604482015290519081900360640190fd5b6004859055600084815260036020526040902083905561026f846401000000006106bb61027a82021704565b505050505050610334565b600061028d6401000000006102ce810204565b600160025481548110151561029e57fe5b906000526020600020015490508160016002548154811015156102bd57fe5b600091825260209091200155919050565b600280546001908101918290555414156102e85760006002555b565b81548183558181111561030e5760008381526020902061030e918101908301610313565b505050565b61033191905b8082111561032d5760008155600101610319565b5090565b90565b61074e806103436000396000f3fe6080604052600436106100825763ffffffff7c010000000000000000000000000000000000000000000000000000000060003504166304fdcc0b811461008757806323bd4d7a146100ce5780632bb0e488146100ff5780635cf12c78146101265780638f94ab7e14610156578063bde060e91461016b578063c380193814610180575b600080fd5b34801561009357600080fd5b506100ba600480360360208110156100aa57600080fd5b5035600160a060020a03166101aa565b604080519115158252519081900360200190f35b3480156100da57600080fd5b506100e36103d1565b60408051600160a060020a039092168252519081900360200190f35b34801561010b57600080fd5b506101146103e0565b60408051918252519081900360200190f35b34801561013257600080fd5b506100ba6004803603604081101561014957600080fd5b50803590602001356103ef565b34801561016257600080fd5b50610114610671565b34801561017757600080fd5b506100e3610677565b34801561018c57600080fd5b50610114600480360360208110156101a357600080fd5b5035610686565b60008054604080517fb1ce8eab0000000000000000000000000000000000000000000000000000000081523360048201529051600160a060020a039092169163b1ce8eab91602480820192602092909190829003018186803b15801561020f57600080fd5b505afa158015610223573d6000803e3d6000fd5b505050506040513d602081101561023957600080fd5b505115156102b7576040805160e560020a62461bcd02815260206004820152603560248201527f4f6e6c7920746865206f7267616e697a6174696f6e20697320616c6c6f77656460448201527f20746f2063616c6c2074686973206d6574686f642e0000000000000000000000606482015290519081900360840190fd5b600160a060020a0382161515610317576040805160e560020a62461bcd02815260206004820181905260248201527f436f2d416e63686f722061646472657373206d757374206e6f7420626520302e604482015290519081900360640190fd5b600554600160a060020a03161561039e576040805160e560020a62461bcd02815260206004820152603560248201527f436f2d416e63686f722068617320616c7265616479206265656e20736574206160448201527f6e642063616e6e6f7420626520757064617465642e0000000000000000000000606482015290519081900360840190fd5b506005805473ffffffffffffffffffffffffffffffffffffffff1916600160a060020a0392909216919091179055600190565b600054600160a060020a031681565b60006103ea610698565b905090565b60008054604080517fb1ce8eab0000000000000000000000000000000000000000000000000000000081523360048201529051600160a060020a039092169163b1ce8eab91602480820192602092909190829003018186803b15801561045457600080fd5b505afa158015610468573d6000803e3d6000fd5b505050506040513d602081101561047e57600080fd5b505115156104fc576040805160e560020a62461bcd02815260206004820152603560248201527f4f6e6c7920746865206f7267616e697a6174696f6e20697320616c6c6f77656460448201527f20746f2063616c6c2074686973206d6574686f642e0000000000000000000000606482015290519081900360840190fd5b811515610553576040805160e560020a62461bcd02815260206004820152601c60248201527f537461746520726f6f74206d757374206e6f74206265207a65726f2e00000000604482015290519081900360640190fd5b61055b610698565b83116105fd576040805160e560020a62461bcd02815260206004820152605160248201527f476976656e20626c6f636b20686569676874206973206c6f776572206f72206560448201527f7175616c20746f206869676865737420616e63686f726564207374617465207260648201527f6f6f7420626c6f636b206865696768742e000000000000000000000000000000608482015290519081900360a40190fd5b6000838152600360205260408120839055610617846106bb565b600081815260036020908152604080832092909255815187815290810186905281519293507f0a57f5c610ae4bcec0e406f2d350ddffa2fb3628fed5da3d7dac3a3c1cdb66c2929081900390910190a15060019392505050565b60045490565b600554600160a060020a031681565b60009081526003602052604090205490565b600060016002548154811015156106ab57fe5b9060005260206000200154905090565b60006106c5610706565b60016002548154811015156106d657fe5b906000526020600020015490508160016002548154811015156106f557fe5b600091825260209091200155919050565b600280546001908101918290555414156107205760006002555b56fea165627a7a723058205b15acfead61060b8027d43c4cc2661ba1c88b774a5da7d75ae302a2fc935da60029",
  "source": "pragma solidity ^0.5.0;\n\n// Copyright 2019 OpenST Ltd.\n//\n// Licensed under the Apache License, Version 2.0 (the \"License\");\n// you may not use this file except in compliance with the License.\n// You may obtain a copy of the License at\n//\n//    http://www.apache.org/licenses/LICENSE-2.0\n//\n// Unless required by applicable law or agreed to in writing, software\n// distributed under the License is distributed on an \"AS IS\" BASIS,\n// WITHOUT WARRANTIES OR CONDITIONS OF ANY KIND, either express or implied.\n// See the License for the specific language governing permissions and\n// limitations under the License.\n//\n// ----------------------------------------------------------------------------\n//\n// http://www.simpletoken.org/\n//\n// ----------------------------------------------------------------------------\n\nimport \"../lib/CircularBufferUint.sol\";\nimport \"../lib/MerklePatriciaProof.sol\";\nimport \"../utilitytoken/contracts/organization/contracts/OrganizationInterface.sol\";\nimport \"../utilitytoken/contracts/organization/contracts/Organized.sol\";\nimport \"../lib/RLP.sol\";\nimport \"openzeppelin-solidity/contracts/math/SafeMath.sol\";\nimport \"../lib/StateRootInterface.sol\";\n\n/**\n * @title Anchor contract which implements StateRootInterface.\n *\n * @notice Anchor stores another chain's state roots. It stores the address of\n *         the co-anchor, which will be the anchor on the other chain. State\n *         roots are exchanged bidirectionally between the anchor and the\n *         co-anchor by the organization.\n */\ncontract Anchor is StateRootInterface, Organized, CircularBufferUint {\n\n    /* Usings */\n\n    using SafeMath for uint256;\n\n\n    /* Events */\n\n    event StateRootAvailable(uint256 _blockHeight, bytes32 _stateRoot);\n\n\n    /* Storage */\n\n    /** Maps block heights to their respective state root. */\n    mapping (uint256 => bytes32) private stateRoots;\n\n    /**\n     * The remote chain ID is the remote chain id where anchor contract is\n     * deployed.\n     */\n    uint256 private remoteChainId;\n\n    /** Address of the anchor on the auxiliary chain. Can be zero. */\n    address public coAnchor;\n\n\n    /*  Constructor */\n\n    /**\n     * @notice Contract constructor.\n     *\n     * @param _remoteChainId The chain id of the chain that is tracked by this\n     *                       anchor.\n     * @param _blockHeight Block height at which _stateRoot needs to store.\n     * @param _stateRoot State root hash of given _blockHeight.\n     * @param _maxStateRoots The max number of state roots to store in the\n     *                       circular buffer.\n     * @param _organization Address of an organization contract.\n     */\n    constructor(\n        uint256 _remoteChainId,\n        uint256 _blockHeight,\n        bytes32 _stateRoot,\n        uint256 _maxStateRoots,\n        OrganizationInterface _organization\n    )\n        Organized(_organization)\n        CircularBufferUint(_maxStateRoots)\n        public\n    {\n        require(\n            _remoteChainId != 0,\n            \"Remote chain Id must not be 0.\"\n        );\n\n        remoteChainId = _remoteChainId;\n\n        stateRoots[_blockHeight] = _stateRoot;\n        CircularBufferUint.store(_blockHeight);\n    }\n\n\n    /* External functions */\n\n    /**\n     *  @notice The Co-Anchor address is the address of the anchor that is\n     *          deployed on the other (origin/auxiliary) chain.\n     *\n     *  @param _coAnchor Address of the Co-Anchor on auxiliary.\n     */\n    function setCoAnchorAddress(address _coAnchor)\n        external\n        onlyOrganization\n        returns (bool success_)\n    {\n\n        require(\n            _coAnchor != address(0),\n            \"Co-Anchor address must not be 0.\"\n        );\n\n        require(\n            coAnchor == address(0),\n            \"Co-Anchor has already been set and cannot be updated.\"\n        );\n\n        coAnchor = _coAnchor;\n\n        success_ = true;\n    }\n\n    /**\n     * @notice Get the state root for the given block height.\n     *\n     * @param _blockHeight The block height for which the state root is needed.\n     *\n     * @return bytes32 State root of the given height.\n     */\n    function getStateRoot(\n        uint256 _blockHeight\n    )\n        external\n        view\n        returns (bytes32 stateRoot_)\n    {\n        stateRoot_ = stateRoots[_blockHeight];\n    }\n\n    /**\n     * @notice Gets the block height of latest anchored state root.\n     *\n     * @return uint256 Block height of the latest anchored state root.\n     */\n    function getLatestStateRootBlockHeight()\n        external\n        view\n        returns (uint256 height_)\n    {\n        height_ = CircularBufferUint.head();\n    }\n\n    /**\n     *  @notice External function anchorStateRoot.\n     *\n     *  @dev anchorStateRoot Called from game process.\n     *       Anchor new state root for a block height.\n     *\n     *  @param _blockHeight Block height for which stateRoots mapping needs to\n     *                      update.\n     *  @param _stateRoot State root of input block height.\n     *\n     *  @return bytes32 stateRoot\n     */\n    function anchorStateRoot(\n        uint256 _blockHeight,\n        bytes32 _stateRoot\n    )\n        external\n        onlyOrganization\n        returns (bool success_)\n    {\n        // State root should be valid\n        require(\n            _stateRoot != bytes32(0),\n            \"State root must not be zero.\"\n        );\n\n        // Input block height should be valid.\n        require(\n            _blockHeight > CircularBufferUint.head(),\n            \"Given block height is lower or equal to highest anchored state root block height.\"\n        );\n\n        stateRoots[_blockHeight] = _stateRoot;\n        uint256 oldestStoredBlockHeight = CircularBufferUint.store(_blockHeight);\n        delete stateRoots[oldestStoredBlockHeight];\n\n        emit StateRootAvailable(_blockHeight, _stateRoot);\n\n        success_ = true;\n    }\n\n    /**\n     *  @notice Get the remote chain id of this anchor.\n     *\n     *  @return remoteChainId_ The remote chain id.\n     */\n    function getRemoteChainId()\n        external\n        view\n        returns (uint256 remoteChainId_)\n    {\n        remoteChainId_ = remoteChainId;\n    }\n}\n",
  "sourcePath": "/Users/abhay/Documents/projects/abhayforks/mosaic-contracts/contracts/anchor/Anchor.sol",
  "compiler": {
    "name": "solc",
    "version": "0.5.0+commit.1d4f565a.Emscripten.clang"
  },
  "schemaVersion": "3.0.1",
  "updatedAt": "2019-08-29T08:15:53.284Z",
  "devdoc": {
    "methods": {
      "anchorStateRoot(uint256,bytes32)": {
        "details": "anchorStateRoot Called from game process.      Anchor new state root for a block height.",
        "params": {
          "_blockHeight": "Block height for which stateRoots mapping needs to                     update.",
          "_stateRoot": "State root of input block height."
        },
        "return": "bytes32 stateRoot"
      },
      "constructor": {
        "params": {
          "_blockHeight": "Block height at which _stateRoot needs to store.",
          "_maxStateRoots": "The max number of state roots to store in the                      circular buffer.",
          "_organization": "Address of an organization contract.",
          "_remoteChainId": "The chain id of the chain that is tracked by this                      anchor.",
          "_stateRoot": "State root hash of given _blockHeight."
        }
      },
      "getLatestStateRootBlockHeight()": {
        "return": "uint256 Block height of the latest anchored state root."
      },
      "getRemoteChainId()": {
        "return": "remoteChainId_ The remote chain id."
      },
      "getStateRoot(uint256)": {
        "params": {
          "_blockHeight": "The block height for which the state root is needed."
        },
        "return": "bytes32 State root of the given height."
      },
      "setCoAnchorAddress(address)": {
        "params": {
          "_coAnchor": "Address of the Co-Anchor on auxiliary."
        }
      }
    },
    "title": "Anchor contract which implements StateRootInterface."
  },
  "userdoc": {
    "methods": {
      "anchorStateRoot(uint256,bytes32)": {
        "notice": "External function anchorStateRoot."
      },
      "constructor": "Contract constructor.",
      "getLatestStateRootBlockHeight()": {
        "notice": "Gets the block height of latest anchored state root."
      },
      "getRemoteChainId()": {
        "notice": "Get the remote chain id of this anchor."
      },
      "getStateRoot(uint256)": {
        "notice": "Get the state root for the given block height."
      },
      "setCoAnchorAddress(address)": {
        "notice": "The Co-Anchor address is the address of the anchor that is         deployed on the other (origin/auxiliary) chain."
      }
    },
    "notice": "Anchor stores another chain's state roots. It stores the address of        the co-anchor, which will be the anchor on the other chain. State        roots are exchanged bidirectionally between the anchor and the        co-anchor by the organization."
  }
}