{
  "contractName": "EIP20Gateway",
  "abi": [
    {
      "constant": true,
      "inputs": [],
      "name": "proposedBountyUnlockHeight",
      "outputs": [
        {
          "name": "",
          "type": "uint256"
        }
      ],
      "payable": false,
      "stateMutability": "view",
      "type": "function"
    },
    {
      "constant": false,
      "inputs": [
        {
          "name": "_proposedBounty",
          "type": "uint256"
        }
      ],
      "name": "initiateBountyAmountChange",
      "outputs": [
        {
          "name": "",
          "type": "uint256"
        }
      ],
      "payable": false,
      "stateMutability": "nonpayable",
      "type": "function"
    },
    {
      "constant": true,
      "inputs": [
        {
          "name": "_account",
          "type": "address"
        }
      ],
      "name": "getOutboxActiveProcess",
      "outputs": [
        {
          "name": "messageHash_",
          "type": "bytes32"
        },
        {
          "name": "status_",
          "type": "uint8"
        }
      ],
      "payable": false,
      "stateMutability": "view",
      "type": "function"
    },
    {
      "constant": true,
      "inputs": [],
      "name": "activated",
      "outputs": [
        {
          "name": "",
          "type": "bool"
        }
      ],
      "payable": false,
      "stateMutability": "view",
      "type": "function"
    },
    {
      "constant": false,
      "inputs": [
        {
          "name": "_blockHeight",
          "type": "uint256"
        },
        {
          "name": "_rlpAccount",
          "type": "bytes"
        },
        {
          "name": "_rlpParentNodes",
          "type": "bytes"
        }
      ],
      "name": "proveGateway",
      "outputs": [
        {
          "name": "",
          "type": "bool"
        }
      ],
      "payable": false,
      "stateMutability": "nonpayable",
      "type": "function"
    },
    {
      "constant": true,
      "inputs": [],
      "name": "organization",
      "outputs": [
        {
          "name": "",
          "type": "address"
        }
      ],
      "payable": false,
      "stateMutability": "view",
      "type": "function"
    },
    {
      "constant": true,
      "inputs": [],
      "name": "burner",
      "outputs": [
        {
          "name": "",
          "type": "address"
        }
      ],
      "payable": false,
      "stateMutability": "view",
      "type": "function"
    },
    {
      "constant": true,
      "inputs": [
        {
          "name": "",
          "type": "bytes32"
        }
      ],
      "name": "messages",
      "outputs": [
        {
          "name": "intentHash",
          "type": "bytes32"
        },
        {
          "name": "nonce",
          "type": "uint256"
        },
        {
          "name": "gasPrice",
          "type": "uint256"
        },
        {
          "name": "gasLimit",
          "type": "uint256"
        },
        {
          "name": "sender",
          "type": "address"
        },
        {
          "name": "hashLock",
          "type": "bytes32"
        },
        {
          "name": "gasConsumed",
          "type": "uint256"
        }
      ],
      "payable": false,
      "stateMutability": "view",
      "type": "function"
    },
    {
      "constant": true,
      "inputs": [
        {
          "name": "_account",
          "type": "address"
        }
      ],
      "name": "getNonce",
      "outputs": [
        {
          "name": "",
          "type": "uint256"
        }
      ],
      "payable": false,
      "stateMutability": "view",
      "type": "function"
    },
    {
      "constant": true,
      "inputs": [],
      "name": "stakeVault",
      "outputs": [
        {
          "name": "",
          "type": "address"
        }
      ],
      "payable": false,
      "stateMutability": "view",
      "type": "function"
    },
    {
      "constant": true,
      "inputs": [],
      "name": "MESSAGE_BOX_OFFSET",
      "outputs": [
        {
          "name": "",
          "type": "uint8"
        }
      ],
      "payable": false,
      "stateMutability": "view",
      "type": "function"
    },
    {
      "constant": true,
      "inputs": [
        {
          "name": "_messageHash",
          "type": "bytes32"
        }
      ],
      "name": "getInboxMessageStatus",
      "outputs": [
        {
          "name": "status_",
          "type": "uint8"
        }
      ],
      "payable": false,
      "stateMutability": "view",
      "type": "function"
    },
    {
      "constant": true,
      "inputs": [],
      "name": "remoteGateway",
      "outputs": [
        {
          "name": "",
          "type": "address"
        }
      ],
      "payable": false,
      "stateMutability": "view",
      "type": "function"
    },
    {
      "constant": true,
      "inputs": [],
      "name": "BOUNTY_CHANGE_UNLOCK_PERIOD",
      "outputs": [
        {
          "name": "",
          "type": "uint256"
        }
      ],
      "payable": false,
      "stateMutability": "view",
      "type": "function"
    },
    {
      "constant": true,
      "inputs": [],
      "name": "bounty",
      "outputs": [
        {
          "name": "",
          "type": "uint256"
        }
      ],
      "payable": false,
      "stateMutability": "view",
      "type": "function"
    },
    {
      "constant": true,
      "inputs": [],
      "name": "REVOCATION_PENALTY",
      "outputs": [
        {
          "name": "",
          "type": "uint8"
        }
      ],
      "payable": false,
      "stateMutability": "view",
      "type": "function"
    },
    {
      "constant": true,
      "inputs": [],
      "name": "proposedBounty",
      "outputs": [
        {
          "name": "",
          "type": "uint256"
        }
      ],
      "payable": false,
      "stateMutability": "view",
      "type": "function"
    },
    {
      "constant": true,
      "inputs": [
        {
          "name": "_account",
          "type": "address"
        }
      ],
      "name": "getInboxActiveProcess",
      "outputs": [
        {
          "name": "messageHash_",
          "type": "bytes32"
        },
        {
          "name": "status_",
          "type": "uint8"
        }
      ],
      "payable": false,
      "stateMutability": "view",
      "type": "function"
    },
    {
      "constant": true,
      "inputs": [
        {
          "name": "_messageHash",
          "type": "bytes32"
        }
      ],
      "name": "getOutboxMessageStatus",
      "outputs": [
        {
          "name": "status_",
          "type": "uint8"
        }
      ],
      "payable": false,
      "stateMutability": "view",
      "type": "function"
    },
    {
      "constant": true,
      "inputs": [],
      "name": "encodedGatewayPath",
      "outputs": [
        {
          "name": "",
          "type": "bytes"
        }
      ],
      "payable": false,
      "stateMutability": "view",
      "type": "function"
    },
    {
      "constant": true,
      "inputs": [],
      "name": "baseToken",
      "outputs": [
        {
          "name": "",
          "type": "address"
        }
      ],
      "payable": false,
      "stateMutability": "view",
      "type": "function"
    },
    {
      "constant": true,
      "inputs": [],
      "name": "stateRootProvider",
      "outputs": [
        {
          "name": "",
          "type": "address"
        }
      ],
      "payable": false,
      "stateMutability": "view",
      "type": "function"
    },
    {
      "constant": false,
      "inputs": [],
      "name": "confirmBountyAmountChange",
      "outputs": [
        {
          "name": "changedBountyAmount_",
          "type": "uint256"
        },
        {
          "name": "previousBountyAmount_",
          "type": "uint256"
        }
      ],
      "payable": false,
      "stateMutability": "nonpayable",
      "type": "function"
    },
    {
      "constant": true,
      "inputs": [],
      "name": "valueToken",
      "outputs": [
        {
          "name": "",
          "type": "address"
        }
      ],
      "payable": false,
      "stateMutability": "view",
      "type": "function"
    },
    {
      "inputs": [
        {
          "name": "_valueToken",
          "type": "address"
        },
        {
          "name": "_baseToken",
          "type": "address"
        },
        {
          "name": "_stateRootProvider",
          "type": "address"
        },
        {
          "name": "_bounty",
          "type": "uint256"
        },
        {
          "name": "_organization",
          "type": "address"
        },
        {
          "name": "_burner",
          "type": "address"
        },
        {
          "name": "_maxStorageRootItems",
          "type": "uint256"
        }
      ],
      "payable": false,
      "stateMutability": "nonpayable",
      "type": "constructor"
    },
    {
      "anonymous": false,
      "inputs": [
        {
          "indexed": true,
          "name": "_messageHash",
          "type": "bytes32"
        },
        {
          "indexed": false,
          "name": "_staker",
          "type": "address"
        },
        {
          "indexed": false,
          "name": "_stakerNonce",
          "type": "uint256"
        },
        {
          "indexed": false,
          "name": "_beneficiary",
          "type": "address"
        },
        {
          "indexed": false,
          "name": "_amount",
          "type": "uint256"
        }
      ],
      "name": "StakeIntentDeclared",
      "type": "event"
    },
    {
      "anonymous": false,
      "inputs": [
        {
          "indexed": true,
          "name": "_messageHash",
          "type": "bytes32"
        },
        {
          "indexed": false,
          "name": "_staker",
          "type": "address"
        },
        {
          "indexed": false,
          "name": "_stakerNonce",
          "type": "uint256"
        },
        {
          "indexed": false,
          "name": "_amount",
          "type": "uint256"
        },
        {
          "indexed": false,
          "name": "_proofProgress",
          "type": "bool"
        },
        {
          "indexed": false,
          "name": "_unlockSecret",
          "type": "bytes32"
        }
      ],
      "name": "StakeProgressed",
      "type": "event"
    },
    {
      "anonymous": false,
      "inputs": [
        {
          "indexed": true,
          "name": "_messageHash",
          "type": "bytes32"
        },
        {
          "indexed": false,
          "name": "_staker",
          "type": "address"
        },
        {
          "indexed": false,
          "name": "_stakerNonce",
          "type": "uint256"
        },
        {
          "indexed": false,
          "name": "_amount",
          "type": "uint256"
        }
      ],
      "name": "RevertStakeIntentDeclared",
      "type": "event"
    },
    {
      "anonymous": false,
      "inputs": [
        {
          "indexed": true,
          "name": "_messageHash",
          "type": "bytes32"
        },
        {
          "indexed": false,
          "name": "_staker",
          "type": "address"
        },
        {
          "indexed": false,
          "name": "_stakerNonce",
          "type": "uint256"
        },
        {
          "indexed": false,
          "name": "_amount",
          "type": "uint256"
        }
      ],
      "name": "StakeReverted",
      "type": "event"
    },
    {
      "anonymous": false,
      "inputs": [
        {
          "indexed": true,
          "name": "_messageHash",
          "type": "bytes32"
        },
        {
          "indexed": false,
          "name": "_redeemer",
          "type": "address"
        },
        {
          "indexed": false,
          "name": "_redeemerNonce",
          "type": "uint256"
        },
        {
          "indexed": false,
          "name": "_beneficiary",
          "type": "address"
        },
        {
          "indexed": false,
          "name": "_amount",
          "type": "uint256"
        },
        {
          "indexed": false,
          "name": "_blockHeight",
          "type": "uint256"
        },
        {
          "indexed": false,
          "name": "_hashLock",
          "type": "bytes32"
        }
      ],
      "name": "RedeemIntentConfirmed",
      "type": "event"
    },
    {
      "anonymous": false,
      "inputs": [
        {
          "indexed": true,
          "name": "_messageHash",
          "type": "bytes32"
        },
        {
          "indexed": false,
          "name": "_redeemer",
          "type": "address"
        },
        {
          "indexed": false,
          "name": "_beneficiary",
          "type": "address"
        },
        {
          "indexed": false,
          "name": "_redeemAmount",
          "type": "uint256"
        },
        {
          "indexed": false,
          "name": "_unstakeAmount",
          "type": "uint256"
        },
        {
          "indexed": false,
          "name": "_rewardAmount",
          "type": "uint256"
        },
        {
          "indexed": false,
          "name": "_proofProgress",
          "type": "bool"
        },
        {
          "indexed": false,
          "name": "_unlockSecret",
          "type": "bytes32"
        }
      ],
      "name": "UnstakeProgressed",
      "type": "event"
    },
    {
      "anonymous": false,
      "inputs": [
        {
          "indexed": true,
          "name": "_messageHash",
          "type": "bytes32"
        },
        {
          "indexed": false,
          "name": "_redeemer",
          "type": "address"
        },
        {
          "indexed": false,
          "name": "_redeemerNonce",
          "type": "uint256"
        },
        {
          "indexed": false,
          "name": "_amount",
          "type": "uint256"
        }
      ],
      "name": "RevertRedeemIntentConfirmed",
      "type": "event"
    },
    {
      "anonymous": false,
      "inputs": [
        {
          "indexed": true,
          "name": "_messageHash",
          "type": "bytes32"
        },
        {
          "indexed": false,
          "name": "_redeemer",
          "type": "address"
        },
        {
          "indexed": false,
          "name": "_redeemerNonce",
          "type": "uint256"
        },
        {
          "indexed": false,
          "name": "_amount",
          "type": "uint256"
        }
      ],
      "name": "RevertRedeemComplete",
      "type": "event"
    },
    {
      "anonymous": false,
      "inputs": [
        {
          "indexed": false,
          "name": "_gateway",
          "type": "address"
        },
        {
          "indexed": false,
          "name": "_blockHeight",
          "type": "uint256"
        },
        {
          "indexed": false,
          "name": "_storageRoot",
          "type": "bytes32"
        },
        {
          "indexed": false,
          "name": "_wasAlreadyProved",
          "type": "bool"
        }
      ],
      "name": "GatewayProven",
      "type": "event"
    },
    {
      "anonymous": false,
      "inputs": [
        {
          "indexed": false,
          "name": "_currentBounty",
          "type": "uint256"
        },
        {
          "indexed": false,
          "name": "_proposedBounty",
          "type": "uint256"
        },
        {
          "indexed": false,
          "name": "_unlockHeight",
          "type": "uint256"
        }
      ],
      "name": "BountyChangeInitiated",
      "type": "event"
    },
    {
      "anonymous": false,
      "inputs": [
        {
          "indexed": false,
          "name": "_currentBounty",
          "type": "uint256"
        },
        {
          "indexed": false,
          "name": "_changedBounty",
          "type": "uint256"
        }
      ],
      "name": "BountyChangeConfirmed",
      "type": "event"
    },
    {
      "constant": false,
      "inputs": [
        {
          "name": "_amount",
          "type": "uint256"
        },
        {
          "name": "_beneficiary",
          "type": "address"
        },
        {
          "name": "_gasPrice",
          "type": "uint256"
        },
        {
          "name": "_gasLimit",
          "type": "uint256"
        },
        {
          "name": "_nonce",
          "type": "uint256"
        },
        {
          "name": "_hashLock",
          "type": "bytes32"
        }
      ],
      "name": "stake",
      "outputs": [
        {
          "name": "messageHash_",
          "type": "bytes32"
        }
      ],
      "payable": false,
      "stateMutability": "nonpayable",
      "type": "function"
    },
    {
      "constant": false,
      "inputs": [
        {
          "name": "_messageHash",
          "type": "bytes32"
        },
        {
          "name": "_unlockSecret",
          "type": "bytes32"
        }
      ],
      "name": "progressStake",
      "outputs": [
        {
          "name": "staker_",
          "type": "address"
        },
        {
          "name": "stakeAmount_",
          "type": "uint256"
        }
      ],
      "payable": false,
      "stateMutability": "nonpayable",
      "type": "function"
    },
    {
      "constant": false,
      "inputs": [
        {
          "name": "_messageHash",
          "type": "bytes32"
        },
        {
          "name": "_rlpParentNodes",
          "type": "bytes"
        },
        {
          "name": "_blockHeight",
          "type": "uint256"
        },
        {
          "name": "_messageStatus",
          "type": "uint256"
        }
      ],
      "name": "progressStakeWithProof",
      "outputs": [
        {
          "name": "staker_",
          "type": "address"
        },
        {
          "name": "stakeAmount_",
          "type": "uint256"
        }
      ],
      "payable": false,
      "stateMutability": "nonpayable",
      "type": "function"
    },
    {
      "constant": false,
      "inputs": [
        {
          "name": "_messageHash",
          "type": "bytes32"
        }
      ],
      "name": "revertStake",
      "outputs": [
        {
          "name": "staker_",
          "type": "address"
        },
        {
          "name": "stakerNonce_",
          "type": "uint256"
        },
        {
          "name": "amount_",
          "type": "uint256"
        }
      ],
      "payable": false,
      "stateMutability": "nonpayable",
      "type": "function"
    },
    {
      "constant": false,
      "inputs": [
        {
          "name": "_messageHash",
          "type": "bytes32"
        },
        {
          "name": "_blockHeight",
          "type": "uint256"
        },
        {
          "name": "_rlpParentNodes",
          "type": "bytes"
        }
      ],
      "name": "progressRevertStake",
      "outputs": [
        {
          "name": "staker_",
          "type": "address"
        },
        {
          "name": "stakerNonce_",
          "type": "uint256"
        },
        {
          "name": "amount_",
          "type": "uint256"
        }
      ],
      "payable": false,
      "stateMutability": "nonpayable",
      "type": "function"
    },
    {
      "constant": false,
      "inputs": [
        {
          "name": "_redeemer",
          "type": "address"
        },
        {
          "name": "_redeemerNonce",
          "type": "uint256"
        },
        {
          "name": "_beneficiary",
          "type": "address"
        },
        {
          "name": "_amount",
          "type": "uint256"
        },
        {
          "name": "_gasPrice",
          "type": "uint256"
        },
        {
          "name": "_gasLimit",
          "type": "uint256"
        },
        {
          "name": "_blockHeight",
          "type": "uint256"
        },
        {
          "name": "_hashLock",
          "type": "bytes32"
        },
        {
          "name": "_rlpParentNodes",
          "type": "bytes"
        }
      ],
      "name": "confirmRedeemIntent",
      "outputs": [
        {
          "name": "messageHash_",
          "type": "bytes32"
        }
      ],
      "payable": false,
      "stateMutability": "nonpayable",
      "type": "function"
    },
    {
      "constant": false,
      "inputs": [
        {
          "name": "_messageHash",
          "type": "bytes32"
        },
        {
          "name": "_unlockSecret",
          "type": "bytes32"
        }
      ],
      "name": "progressUnstake",
      "outputs": [
        {
          "name": "redeemAmount_",
          "type": "uint256"
        },
        {
          "name": "unstakeAmount_",
          "type": "uint256"
        },
        {
          "name": "rewardAmount_",
          "type": "uint256"
        }
      ],
      "payable": false,
      "stateMutability": "nonpayable",
      "type": "function"
    },
    {
      "constant": true,
      "inputs": [
        {
          "name": "_messageHash",
          "type": "bytes32"
        }
      ],
      "name": "penalty",
      "outputs": [
        {
          "name": "penalty_",
          "type": "uint256"
        }
      ],
      "payable": false,
      "stateMutability": "view",
      "type": "function"
    },
    {
      "constant": false,
      "inputs": [
        {
          "name": "_messageHash",
          "type": "bytes32"
        },
        {
          "name": "_rlpParentNodes",
          "type": "bytes"
        },
        {
          "name": "_blockHeight",
          "type": "uint256"
        },
        {
          "name": "_messageStatus",
          "type": "uint256"
        }
      ],
      "name": "progressUnstakeWithProof",
      "outputs": [
        {
          "name": "redeemAmount_",
          "type": "uint256"
        },
        {
          "name": "unstakeAmount_",
          "type": "uint256"
        },
        {
          "name": "rewardAmount_",
          "type": "uint256"
        }
      ],
      "payable": false,
      "stateMutability": "nonpayable",
      "type": "function"
    },
    {
      "constant": false,
      "inputs": [
        {
          "name": "_messageHash",
          "type": "bytes32"
        },
        {
          "name": "_blockHeight",
          "type": "uint256"
        },
        {
          "name": "_rlpParentNodes",
          "type": "bytes"
        }
      ],
      "name": "confirmRevertRedeemIntent",
      "outputs": [
        {
          "name": "redeemer_",
          "type": "address"
        },
        {
          "name": "redeemerNonce_",
          "type": "uint256"
        },
        {
          "name": "amount_",
          "type": "uint256"
        }
      ],
      "payable": false,
      "stateMutability": "nonpayable",
      "type": "function"
    },
    {
      "constant": false,
      "inputs": [
        {
          "name": "_coGatewayAddress",
          "type": "address"
        }
      ],
      "name": "activateGateway",
      "outputs": [
        {
          "name": "success_",
          "type": "bool"
        }
      ],
      "payable": false,
      "stateMutability": "nonpayable",
      "type": "function"
    },
    {
      "constant": false,
      "inputs": [],
      "name": "deactivateGateway",
      "outputs": [
        {
          "name": "success_",
          "type": "bool"
        }
      ],
      "payable": false,
      "stateMutability": "nonpayable",
      "type": "function"
    },
    {
      "constant": true,
      "inputs": [],
      "name": "token",
      "outputs": [
        {
          "name": "valueToken_",
          "type": "address"
        }
      ],
      "payable": false,
      "stateMutability": "view",
      "type": "function"
    }
  ],
  "bytecode": "0x60806040523480156200001157600080fd5b5060405160e08062005045833981018060405260e08110156200003357600080fd5b508051602082015160408301516060840151608085015160a086015160c0909601519495939492939192909190848484838082600160a060020a03811615156200010457604080517f08c379a000000000000000000000000000000000000000000000000000000000815260206004820152602f60248201527f4f7267616e697a6174696f6e20636f6e74726163742061646472657373206d7560448201527f7374206e6f74206265207a65726f2e0000000000000000000000000000000000606482015290519081900360840190fd5b60008054600160a060020a031916600160a060020a03929092169190911781558111620001de57604080517f08c379a000000000000000000000000000000000000000000000000000000000815260206004820152604d60248201527f546865206d6178206e756d626572206f66206974656d7320746f2073746f726560448201527f20696e20612063697263756c617220627566666572206d75737420626520677260648201527f6561746572207468616e20302e00000000000000000000000000000000000000608482015290519081900360a40190fd5b80620001ec600182620004db565b5050600160a060020a03841615156200028c57604080517f08c379a000000000000000000000000000000000000000000000000000000000815260206004820152603660248201527f537461746520726f6f742070726f766964657220636f6e74726163742061646460448201527f72657373206d757374206e6f74206265207a65726f2e00000000000000000000606482015290519081900360840190fd5b60038054600160a060020a031916600160a060020a0386161790556006839055604080518082019182905260006020909101819052620002cf9160049162000507565b505060058054600160a060020a0319169055505050600160a060020a03871615156200038257604080517f08c379a000000000000000000000000000000000000000000000000000000000815260206004820152602e60248201527f56616c756520746f6b656e20636f6e74726163742061646472657373206d757360448201527f74206e6f74206265207a65726f2e000000000000000000000000000000000000606482015290519081900360840190fd5b600160a060020a03861615156200042057604080517f08c379a000000000000000000000000000000000000000000000000000000000815260206004820152603760248201527f4261736520746f6b656e20636f6e7472616374206164647265737320666f722060448201527f626f756e7479206d757374206e6f74206265207a65726f000000000000000000606482015290519081900360840190fd5b60108054600160a060020a03808a16600160a060020a031992831617909255601180548984169083161790556012805492851692909116919091179055600f805460ff191690558630620004736200058c565b600160a060020a03928316815291166020820152604080519182900301906000f080158015620004a7573d6000803e3d6000fd5b50600f60016101000a815481600160a060020a030219169083600160a060020a0316021790555050505050505050620005bd565b8154818355818111156200050257600083815260209020620005029181019083016200059d565b505050565b828054600181600116156101000203166002900490600052602060002090601f016020900481019282601f106200054a57805160ff19168380011785556200057a565b828001600101855582156200057a579182015b828111156200057a5782518255916020019190600101906200055d565b50620005889291506200059d565b5090565b6040516105fc8062004a4983390190565b620005ba91905b80821115620005885760008155600101620005a4565b90565b61447c80620005cd6000396000f3fe6080604052600436106101b35763ffffffff60e060020a600035041663015fb54e81146101b85780630cb1d857146101df5780630cd44fe114610209578063186601ca14610267578063212dbdbe1461029057806321ea7ee1146102e257806323bd4d7a146103b857806326fc7590146103e957806327810b6e146104135780632bbd59ca146104285780632c0ba56a146104935780632d0335ab146104a85780632d252d5b146104db5780632d7883331461056457806335c6cbe014610579578063417d9e4b146105a45780634240760a146105f257806351617b781461064557806365b41e16146107035780636bb12049146107185780638ed9c5dc14610769578063943dfef11461077e578063a3ea156d14610793578063a5035cd5146107a8578063aa916447146107bd578063b0ab4dba146107f0578063c3a473261461081a578063c55dae63146108a4578063c818e2f0146108b9578063cbc3ec9714610961578063d4d1118514610991578063dfa913bb146109a6578063e065c793146109d4578063e73ff96414610a5e578063effff82f14610a91578063fc0c546a14610aa6578063fecbbab514610abb575b600080fd5b3480156101c457600080fd5b506101cd610b44565b60408051918252519081900360200190f35b3480156101eb57600080fd5b506101cd6004803603602081101561020257600080fd5b5035610b4a565b34801561021557600080fd5b5061023c6004803603602081101561022c57600080fd5b5035600160a060020a0316610c32565b6040518083815260200182600481111561025257fe5b60ff1681526020019250505060405180910390f35b34801561027357600080fd5b5061027c610c63565b604080519115158252519081900360200190f35b34801561029c57600080fd5b506102ba600480360360208110156102b357600080fd5b5035610c6c565b60408051600160a060020a039094168452602084019290925282820152519081900360600190f35b3480156102ee57600080fd5b5061027c6004803603606081101561030557600080fd5b8135919081019060408101602082013564010000000081111561032757600080fd5b82018360208201111561033957600080fd5b8035906020019184600183028401116401000000008311171561035b57600080fd5b91939092909160208101903564010000000081111561037957600080fd5b82018360208201111561038b57600080fd5b803590602001918460018302840111640100000000831117156103ad57600080fd5b509092509050610f62565b3480156103c457600080fd5b506103cd611383565b60408051600160a060020a039092168252519081900360200190f35b3480156103f557600080fd5b506101cd6004803603602081101561040c57600080fd5b5035611392565b34801561041f57600080fd5b506103cd6113ad565b34801561043457600080fd5b506104526004803603602081101561044b57600080fd5b50356113bc565b604080519788526020880196909652868601949094526060860192909252600160a060020a0316608085015260a084015260c0830152519081900360e00190f35b34801561049f57600080fd5b5061027c611403565b3480156104b457600080fd5b506101cd600480360360208110156104cb57600080fd5b5035600160a060020a0316611545565b3480156104e757600080fd5b506102ba600480360360608110156104fe57600080fd5b81359160208101359181019060608101604082013564010000000081111561052557600080fd5b82018360208201111561053757600080fd5b8035906020019184600183028401116401000000008311171561055957600080fd5b509092509050611550565b34801561057057600080fd5b506103cd6118b8565b34801561058557600080fd5b5061058e6118cc565b6040805160ff9092168252519081900360200190f35b3480156105b057600080fd5b506105ce600480360360208110156105c757600080fd5b50356118d1565b604051808260048111156105de57fe5b60ff16815260200191505060405180910390f35b3480156105fe57600080fd5b506106226004803603604081101561061557600080fd5b50803590602001356118e6565b60408051600160a060020a03909316835260208301919091528051918290030190f35b34801561065157600080fd5b506101cd600480360361012081101561066957600080fd5b600160a060020a03823581169260208101359260408201359092169160608201359160808101359160a08201359160c08101359160e0820135919081019061012081016101008201356401000000008111156106c457600080fd5b8201836020820111156106d657600080fd5b803590602001918460018302840111640100000000831117156106f857600080fd5b509092509050611a0c565b34801561070f57600080fd5b506103cd611e3f565b34801561072457600080fd5b506101cd600480360360c081101561073b57600080fd5b50803590600160a060020a036020820135169060408101359060608101359060808101359060a00135611e4e565b34801561077557600080fd5b506101cd61249a565b34801561078a57600080fd5b506101cd6124a1565b34801561079f57600080fd5b5061058e6124a7565b3480156107b457600080fd5b506101cd6124ac565b3480156107c957600080fd5b5061023c600480360360208110156107e057600080fd5b5035600160a060020a03166124b2565b3480156107fc57600080fd5b506105ce6004803603602081101561081357600080fd5b50356124e3565b34801561082657600080fd5b5061082f6124f8565b6040805160208082528351818301528351919283929083019185019080838360005b83811015610869578181015183820152602001610851565b50505050905090810190601f1680156108965780820380516001836020036101000a031916815260200191505b509250505060405180910390f35b3480156108b057600080fd5b506103cd612586565b3480156108c557600080fd5b50610943600480360360808110156108dc57600080fd5b813591908101906040810160208201356401000000008111156108fe57600080fd5b82018360208201111561091057600080fd5b8035906020019184600183028401116401000000008311171561093257600080fd5b919350915080359060200135612595565b60408051938452602084019290925282820152519081900360600190f35b34801561096d57600080fd5b506109436004803603604081101561098457600080fd5b50803590602001356127ea565b34801561099d57600080fd5b506103cd612908565b3480156109b257600080fd5b506109bb612917565b6040805192835260208301919091528051918290030190f35b3480156109e057600080fd5b50610622600480360360808110156109f757600080fd5b81359190810190604081016020820135640100000000811115610a1957600080fd5b820183602082011115610a2b57600080fd5b80359060200191846001830284011164010000000083111715610a4d57600080fd5b919350915080359060200135612b6c565b348015610a6a57600080fd5b5061027c60048036036020811015610a8157600080fd5b5035600160a060020a0316612da4565b348015610a9d57600080fd5b506103cd61300f565b348015610ab257600080fd5b506103cd61301e565b348015610ac757600080fd5b506102ba60048036036060811015610ade57600080fd5b813591602081013591810190606081016040820135640100000000811115610b0557600080fd5b820183602082011115610b1757600080fd5b80359060200191846001830284011164010000000083111715610b3957600080fd5b50909250905061302d565b60085481565b600080546040805160e060020a63b1ce8eab0281523360048201529051600160a060020a039092169163b1ce8eab91602480820192602092909190829003018186803b158015610b9957600080fd5b505afa158015610bad573d6000803e3d6000fd5b505050506040513d6020811015610bc357600080fd5b50511515610c1d576040805160e560020a62461bcd02815260206004820152603560248201526000805160206143d18339815191526044820152600080516020614431833981519152606482015290519081900360840190fd5b610c2a82620313806134f8565b90505b919050565b600160a060020a03166000908152600e6020908152604080832054808452600990925290912054909160ff90911690565b600f5460ff1681565b60008080831515610cb5576040805160e560020a62461bcd02815260206004820152601e6024820152600080516020614411833981519152604482015290519081900360640190fd5b6000848152600b602052604090206004810154600160a060020a03163314610d27576040805160e560020a62461bcd02815260206004820152601d60248201527f4f6e6c79207374616b65722063616e20726576657274207374616b652e000000604482015290519081900360640190fd5b73__MessageBus____________________________635cafcfb56009836040518363ffffffff1660e060020a028152600401808381526020018281526020019250505060206040518083038186803b158015610d8257600080fd5b505af4158015610d96573d6000803e3d6000fd5b505050506040513d6020811015610dac57600080fd5b50506004810154600182015460008781526013602052604081208054600290910154600160a060020a03909416975091955090935090610deb90613561565b601154601254604080517f23b872dd000000000000000000000000000000000000000000000000000000008152336004820152600160a060020a0392831660248201526044810185905290519394509116916323b872dd916064808201926020929091908290030181600087803b158015610e6557600080fd5b505af1158015610e79573d6000803e3d6000fd5b505050506040513d6020811015610e8f57600080fd5b50511515610f0d576040805160e560020a62461bcd02815260206004820152602f60248201527f5374616b6572206d75737420617070726f7665206761746577617920666f722060448201527f70656e616c747920616d6f756e742e0000000000000000000000000000000000606482015290519081900360840190fd5b60408051600160a060020a038716815260208101869052808201859052905187917f7db334432ffc05820ab5581a94da967946ca219ccb89a376bbfff75d7bf15592919081900360600190a250509193909250565b6000831515610fe0576040805160e560020a62461bcd028152602060048201526024808201527f4c656e677468206f6620524c50206163636f756e74206d757374206e6f74206260448201527f6520302e00000000000000000000000000000000000000000000000000000000606482015290519081900360840190fd5b811515611037576040805160e560020a62461bcd02815260206004820152601f60248201527f4c656e677468206f6620524c5020706172656e74206e6f646573206973203000604482015290519081900360640190fd5b600354604080517fc3801938000000000000000000000000000000000000000000000000000000008152600481018990529051600092600160a060020a03169163c3801938916024808301926020929190829003018186803b15801561109c57600080fd5b505afa1580156110b0573d6000803e3d6000fd5b505050506040513d60208110156110c657600080fd5b50519050801515611121576040805160e560020a62461bcd02815260206004820152601b60248201527f537461746520726f6f74206d757374206e6f74206265207a65726f0000000000604482015290519081900360640190fd5b6000878152600c602052604090205480156111945760055460408051600160a060020a039092168252602082018a905281810183905260016060830152517fc8b086273f6873ca5eb46c33fc969bbe291c604753ae831ace47644e4362b2b89181900360800190a160019250505061137a565b600073__GatewayLib____________________________63d5c9809b898989896004896040518763ffffffff1660e060020a0281526004018080602001806020018060200185815260200184810384528a8a82818152602001925080828437600083820152601f01601f191690910185810384528881526020019050888880828437600083820152601f01601f1916909101858103835287546002600019610100600184161502019091160480825260209091019150879080156112995780601f1061126e57610100808354040283529160200191611299565b820191906000526020600020905b81548152906001019060200180831161127c57829003601f168201915b5050995050505050505050505060206040518083038186803b1580156112be57600080fd5b505af41580156112d2573d6000803e3d6000fd5b505050506040513d60208110156112e857600080fd5b505160008a8152600c602052604081208290559091506113078a613585565b6000818152600c602090815260408083208390556005548151600160a060020a0390911681529182018e9052818101869052606082019290925290519192507fc8b086273f6873ca5eb46c33fc969bbe291c604753ae831ace47644e4362b2b8919081900360800190a160019450505050505b95945050505050565b600054600160a060020a031681565b600081815260136020526040812060020154610c2a90613561565b601254600160a060020a031681565b600b6020526000908152604090208054600182015460028301546003840154600485015460058601546006909601549495939492939192600160a060020a03909116919087565b600080546040805160e060020a63b1ce8eab0281523360048201529051600160a060020a039092169163b1ce8eab91602480820192602092909190829003018186803b15801561145257600080fd5b505afa158015611466573d6000803e3d6000fd5b505050506040513d602081101561147c57600080fd5b505115156114d6576040805160e560020a62461bcd02815260206004820152603560248201526000805160206143d18339815191526044820152600080516020614431833981519152606482015290519081900360840190fd5b600f5460ff161515600114611535576040805160e560020a62461bcd02815260206004820152601f60248201527f4761746577617920697320616c72656164792064656163746976617465642e00604482015290519081900360640190fd5b50600f805460ff19169055600190565b6000610c2a826135d0565b60008080861515611599576040805160e560020a62461bcd02815260206004820152601e6024820152600080516020614411833981519152604482015290519081900360640190fd5b60008411611617576040805160e560020a62461bcd02815260206004820152602260248201527f524c5020706172656e74206e6f646573206d757374206e6f74206265207a657260448201527f6f2e000000000000000000000000000000000000000000000000000000000000606482015290519081900360840190fd5b5060008681526014602052604081205490811161167e576040805160e560020a62461bcd02815260206004820181905260248201527f556e7374616b6520616d6f756e74206d757374206e6f74206265207a65726f2e604482015290519081900360640190fd5b60008781526014602090815260408083208381556001018054600160a060020a0319169055600b909152902080541515611728576040805160e560020a62461bcd02815260206004820152602a60248201527f52657665727452656465656d20696e74656e742068617368206d757374206e6f60448201527f74206265207a65726f2e00000000000000000000000000000000000000000000606482015290519081900360840190fd5b6000878152600c602052604090205480151561177c576040805160e560020a62461bcd02815260206004820152601e60248201526000805160206143f1833981519152604482015290519081900360640190fd5b73__MessageBus____________________________6309ae45116009848a8a6009876040518763ffffffff1660e060020a02815260040180878152602001868152602001806020018460ff1660ff1681526020018381526020018281038252868682818152602001925080828437600081840152601f19601f82011690508083019250505097505050505050505060206040518083038186803b15801561182257600080fd5b505af4158015611836573d6000803e3d6000fd5b505050506040513d602081101561184c57600080fd5b50506004820154600183015460408051600160a060020a039093168084526020840183905283820187905290519097509095508a917f12021c0985bb18bfab585272868c2e2ae2db7b7bae483560daa5b51788a5decc919081900360600190a250509450945094915050565b600f546101009004600160a060020a031681565b600981565b6000908152600a602052604090205460ff1690565b600080831515611940576040805160e560020a62461bcd02815260206004820152601d60248201527f4d6573736167652068617368206d757374206e6f74206265207a65726f000000604482015290519081900360640190fd5b6000848152600b602090815260409182902082517f24b4aaf90000000000000000000000000000000000000000000000000000000081526009600482015260248101829052604481018790529251909273__MessageBus____________________________926324b4aaf992606480840193829003018186803b1580156119c657600080fd5b505af41580156119da573d6000803e3d6000fd5b505050506040513d60208110156119f057600080fd5b50611a00905085828660006135f9565b90969095509350505050565b6000805a9050600160a060020a038c161515611a98576040805160e560020a62461bcd02815260206004820152602260248201527f52656465656d65722061646472657373206d757374206e6f74206265207a657260448201527f6f2e000000000000000000000000000000000000000000000000000000000000606482015290519081900360840190fd5b600160a060020a038a161515611b1e576040805160e560020a62461bcd02815260206004820152602560248201527f42656e65666963696172792061646472657373206d757374206e6f742062652060448201527f7a65726f2e000000000000000000000000000000000000000000000000000000606482015290519081900360840190fd5b881515611b75576040805160e560020a62461bcd02815260206004820152601f60248201527f52656465656d20616d6f756e74206d757374206e6f74206265207a65726f2e00604482015290519081900360640190fd5b60008311611bf3576040805160e560020a62461bcd02815260206004820152602a60248201527f524c5020656e636f64656420706172656e74206e6f646573206d757374206e6f60448201527f74206265207a65726f2e00000000000000000000000000000000000000000000606482015290519081900360840190fd5b611c03888863ffffffff61381616565b8911611c7f576040805160e560020a62461bcd02815260206004820152603c60248201527f4d6178696d756d20706f737369626c6520726577617264206d7573742062652060448201527f6c657373207468616e207468652072656465656d20616d6f756e742e00000000606482015290519081900360840190fd5b6000611c8b8a8c613841565b9050611c956142f9565b60e0604051908101604052808381526020018e81526020018b81526020018a81526020018f600160a060020a0316815260200188815260200160008152509050611cde816138fd565b9350611cf38160800151826020015186613a4d565b6040805180820182528c8152600160a060020a038e8116602080840191825260008981526014825285812094518555915160019094018054600160a060020a0319169490931693909317909155600b82528290208251601f8901839004830281018301909352878352611d859290918b91908a908a9081908401838280828437600092019190915250613be492505050565b50837fba4ac3e715e17f26685ca6074bc68752bdaf9c2ed6d196b7c8ebf0a445601a9c8f8f8f8f8d8d6040518087600160a060020a0316600160a060020a0316815260200186815260200185600160a060020a0316600160a060020a03168152602001848152602001838152602001828152602001965050505050505060405180910390a2611e1b5a849063ffffffff613d4b16565b6000858152600b602052604090206006015550919c9b505050505050505050505050565b600554600160a060020a031681565b600f5460009060ff161515600114611eb0576040805160e560020a62461bcd02815260206004820152601960248201527f47617465776179206973206e6f74206163746976617465642e00000000000000604482015290519081900360640190fd5b3360008811611f09576040805160e560020a62461bcd02815260206004820152601e60248201527f5374616b6520616d6f756e74206d757374206e6f74206265207a65726f2e0000604482015290519081900360640190fd5b600160a060020a0387161515611f8f576040805160e560020a62461bcd02815260206004820152602560248201527f42656e65666963696172792061646472657373206d757374206e6f742062652060448201527f7a65726f2e000000000000000000000000000000000000000000000000000000606482015290519081900360840190fd5b611f9f868663ffffffff61381616565b881161201b576040805160e560020a62461bcd02815260206004820152603b60248201527f4d6178696d756d20706f737369626c6520726577617264206d7573742062652060448201527f6c657373207468616e20746865207374616b6520616d6f756e742e0000000000606482015290519081900360840190fd5b604080517f3f0f14f3000000000000000000000000000000000000000000000000000000008152600481018a9052600160a060020a0389166024820152306044820152905160009173__GatewayLib____________________________91633f0f14f391606480820192602092909190829003018186803b15801561209f57600080fd5b505af41580156120b3573d6000803e3d6000fd5b505050506040513d60208110156120c957600080fd5b505190506120d56142f9565b6120e382878a8a878a613d60565b90506120ee816138fd565b93506120fb838786613da7565b604080516060810182528b8152600160a060020a038b8116602080840191825260065484860190815260008a815260138352868120955186559251600186018054600160a060020a03191691909516179093559151600290930192909255600b81529082902082517fd446caee000000000000000000000000000000000000000000000000000000008152600960048201526024810191909152915173__MessageBus____________________________9263d446caee926044808301939192829003018186803b1580156121cf57600080fd5b505af41580156121e3573d6000803e3d6000fd5b505050506040513d60208110156121f957600080fd5b5050601054604080517f23b872dd000000000000000000000000000000000000000000000000000000008152600160a060020a038681166004830152306024830152604482018e9052915191909216916323b872dd9160648083019260209291908290030181600087803b15801561227057600080fd5b505af1158015612284573d6000803e3d6000fd5b505050506040513d602081101561229a57600080fd5b50511515612318576040805160e560020a62461bcd02815260206004820152602b60248201527f5374616b6520616d6f756e74206d757374206265207472616e7366657272656460448201527f20746f2067617465776179000000000000000000000000000000000000000000606482015290519081900360840190fd5b601154600654604080517f23b872dd000000000000000000000000000000000000000000000000000000008152600160a060020a0387811660048301523060248301526044820193909352905191909216916323b872dd9160648083019260209291908290030181600087803b15801561239157600080fd5b505af11580156123a5573d6000803e3d6000fd5b505050506040513d60208110156123bb57600080fd5b50511515612439576040805160e560020a62461bcd02815260206004820152602c60248201527f426f756e747920616d6f756e74206d757374206265207472616e73666572726560448201527f6420746f20676174657761790000000000000000000000000000000000000000606482015290519081900360840190fd5b60408051600160a060020a038086168252602082018990528b1681830152606081018c9052905185917f1dc8ba34c8d75b6e750df7dadcf65dd6d6a7910483bcea2779971f587bade954919081900360800190a25050509695505050505050565b6203138081565b60065481565b609681565b60075481565b600160a060020a03166000908152600d6020908152604080832054808452600a90925290912054909160ff90911690565b60009081526009602052604090205460ff1690565b6004805460408051602060026001851615610100026000190190941693909304601f8101849004840282018401909252818152929183018282801561257e5780601f106125535761010080835404028352916020019161257e565b820191906000526020600020905b81548152906001019060200180831161256157829003601f168201915b505050505081565b601154600160a060020a031681565b6000806000805a90508815156125e3576040805160e560020a62461bcd02815260206004820152601e6024820152600080516020614411833981519152604482015290519081900360640190fd5b60008711612661576040805160e560020a62461bcd02815260206004820152602160248201527f524c5020706172656e74206e6f646573206d757374206e6f74206265207a657260448201527f6f00000000000000000000000000000000000000000000000000000000000000606482015290519081900360840190fd5b6000868152600c60205260409020548015156126c7576040805160e560020a62461bcd02815260206004820152601d60248201527f53746f7261676520726f6f74206d757374206e6f74206265207a65726f000000604482015290519081900360640190fd5b60008a8152600b6020526040902073__MessageBus____________________________63c859835d6009838d8d83888e600481111561270257fe5b6040518863ffffffff1660e060020a02815260040180888152602001878152602001806020018560ff1660ff16815260200184815260200183600481111561274657fe5b60ff1681526020018281038252878782818152602001925080828437600081840152601f19601f8201169050808301925050509850505050505050505060206040518083038186803b15801561279b57600080fd5b505af41580156127af573d6000803e3d6000fd5b505050506040513d60208110156127c557600080fd5b506127d690508b8460006001613f3e565b919d909c50909a5098505050505050505050565b6000806000805a9050851515612838576040805160e560020a62461bcd02815260206004820152601e6024820152600080516020614411833981519152604482015290519081900360640190fd5b6000868152600b602090815260409182902082517f08ba98ab0000000000000000000000000000000000000000000000000000000081526009600482015260248101829052604481018990529251909273__MessageBus____________________________926308ba98ab92606480840193829003018186803b1580156128be57600080fd5b505af41580156128d2573d6000803e3d6000fd5b505050506040513d60208110156128e857600080fd5b506128f890508783886000613f3e565b9199909850909650945050505050565b600354600160a060020a031681565b600080546040805160e060020a63b1ce8eab02815233600482015290518392600160a060020a03169163b1ce8eab916024808301926020929190829003018186803b15801561296557600080fd5b505afa158015612979573d6000803e3d6000fd5b505050506040513d602081101561298f57600080fd5b505115156129e9576040805160e560020a62461bcd02815260206004820152603560248201526000805160206143d18339815191526044820152600080516020614431833981519152606482015290519081900360840190fd5b6006546007541415612a6b576040805160e560020a62461bcd02815260206004820152603960248201527f50726f706f73656420626f756e74792073686f756c642062652064696666657260448201527f656e742066726f6d206578697374696e6720626f756e74792e00000000000000606482015290519081900360840190fd5b6008544311612b10576040805160e560020a62461bcd02815260206004820152604260248201527f436f6e6669726d20626f756e747920616d6f756e74206368616e67652063616e60448201527f206f6e6c7920626520646f6e6520616674657220756e6c6f636b20706572696f60648201527f642e000000000000000000000000000000000000000000000000000000000000608482015290519081900360a40190fd5b5050600780546006805490829055600092839055600892909255604080518381526020810183905281519293927f2bc6c861f98712a6d2a053602d401de56c25e430d0530b26bcc12f1aaf3e586c929181900390910190a19091565b600080861515612bb4576040805160e560020a62461bcd02815260206004820152601e6024820152600080516020614411833981519152604482015290519081900360640190fd5b60008511612c32576040805160e560020a62461bcd02815260206004820152602a60248201527f524c5020656e636f64656420706172656e74206e6f646573206d757374206e6f60448201527f74206265207a65726f2e00000000000000000000000000000000000000000000606482015290519081900360840190fd5b6000848152600c6020526040902054801515612c86576040805160e560020a62461bcd02815260206004820152601e60248201526000805160206143f1833981519152604482015290519081900360640190fd5b6000888152600b6020526040902073__MessageBus____________________________62946fac6009838b8b83888c6004811115612cc057fe5b6040518863ffffffff1660e060020a02815260040180888152602001878152602001806020018560ff1660ff168152602001848152602001836004811115612d0457fe5b60ff1681526020018281038252878782818152602001925080828437600081840152601f19601f8201169050808301925050509850505050505050505060206040518083038186803b158015612d5957600080fd5b505af4158015612d6d573d6000803e3d6000fd5b505050506040513d6020811015612d8357600080fd5b50612d9490508982600060016135f9565b909a909950975050505050505050565b600080546040805160e060020a63b1ce8eab0281523360048201529051600160a060020a039092169163b1ce8eab91602480820192602092909190829003018186803b158015612df357600080fd5b505afa158015612e07573d6000803e3d6000fd5b505050506040513d6020811015612e1d57600080fd5b50511515612e77576040805160e560020a62461bcd02815260206004820152603560248201526000805160206143d18339815191526044820152600080516020614431833981519152606482015290519081900360840190fd5b600160a060020a0382161515612efc576040805160e560020a62461bcd028152602060048201526024808201527f436f2d676174657761792061646472657373206d757374206e6f74206265207a60448201527f65726f2e00000000000000000000000000000000000000000000000000000000606482015290519081900360840190fd5b600554600160a060020a031615612f83576040805160e560020a62461bcd02815260206004820152602360248201527f476174657761792077617320616c726561647920616374697661746564206f6e60448201527f63652e0000000000000000000000000000000000000000000000000000000000606482015290519081900360840190fd5b60058054600160a060020a031916600160a060020a03848116919091179182905560408051929091166c01000000000000000000000000026020808401919091528151601481850301815260349093019091528151910120612fe4906141c7565b8051612ff891600491602090910190614335565b5050600f805460ff19166001908117909155919050565b601054600160a060020a031681565b601054600160a060020a031690565b60008080861515613076576040805160e560020a62461bcd02815260206004820152601e6024820152600080516020614411833981519152604482015290519081900360640190fd5b600084116130f4576040805160e560020a62461bcd02815260206004820152602260248201527f524c5020706172656e74206e6f646573206d757374206e6f74206265207a657260448201527f6f2e000000000000000000000000000000000000000000000000000000000000606482015290519081900360840190fd5b6000878152600b6020526040902080541515613180576040805160e560020a62461bcd02815260206004820152602160248201527f5374616b65496e74656e7448617368206d757374206e6f74206265207a65726f60448201527f2e00000000000000000000000000000000000000000000000000000000000000606482015290519081900360840190fd5b6000878152600c60205260409020548015156131d4576040805160e560020a62461bcd02815260206004820152601e60248201526000805160206143f1833981519152604482015290519081900360640190fd5b6000898152601360205260408120549350831161323b576040805160e560020a62461bcd02815260206004820152601960248201527f5374616b652072657175657374206d7573742065786973742e00000000000000604482015290519081900360640190fd5b600480830154600184015460008c815260136020526040908190206002015490517f1b3ef51c0000000000000000000000000000000000000000000000000000000081526009818601818152602483018990526044830182905260848301889052600160a060020a039095169a50929850909373__MessageBus____________________________93631b3ef51c9392889284928f928f928b929091606481019060a4018360ff1681526020018281038252868682818152602001925080828437600081840152601f19601f8201169050808301925050509850505050505050505060206040518083038186803b15801561333557600080fd5b505af4158015613349573d6000803e3d6000fd5b505050506040513d602081101561335f57600080fd5b505060008a8152601360209081526040808320838155600181018054600160a060020a0319169055600201839055601054600480880154835160e060020a63a9059cbb028152600160a060020a0391821692810192909252602482018a90529251919092169363a9059cbb93604480850194919392918390030190829087803b1580156133eb57600080fd5b505af11580156133ff573d6000803e3d6000fd5b505050506040513d602081101561341557600080fd5b50506011546012546040805160e060020a63a9059cbb028152600160a060020a039283166004820152602481018590529051919092169163a9059cbb9160448083019260209291908290030181600087803b15801561347357600080fd5b505af1158015613487573d6000803e3d6000fd5b505050506040513d602081101561349d57600080fd5b505060408051600160a060020a03881681526020810187905280820186905290518b917f4259cc74a1169febcb3cb858142524599da133401841e489e8add6adbb273b4a919081900360600190a25050509450945094915050565b6007829055600061350f438363ffffffff6141f116565b600881905560065460408051918252602082018690528181019290925290517fa9d65527bbb70e7c576f499d3a54f5eb8dc1e9502e13692d2db49c7177c0c24d9181900360600190a150815b92915050565b6000610c2a606461357984609663ffffffff61381616565b9063ffffffff61420316565b600061358f614227565b60016002548154811015156135a057fe5b906000526020600020015490508160016002548154811015156135bf57fe5b600091825260209091200155919050565b600160a060020a0381166000908152600e60205260408120546135f281614243565b9392505050565b6004830154600085815260136020526040812054600160a060020a0390921691908111613670576040805160e560020a62461bcd02815260206004820152601960248201527f5374616b652072657175657374206d7573742065786973742e00000000000000604482015290519081900360640190fd5b600086815260136020908152604080832060028101805485835560019092018054600160a060020a0319169055849055601054600f54835160e060020a63a9059cbb028152600160a060020a0361010090920482166004820152602481018890529351929591169363a9059cbb936044808201949293918390030190829087803b1580156136fd57600080fd5b505af1158015613711573d6000803e3d6000fd5b505050506040513d602081101561372757600080fd5b50506011546040805160e060020a63a9059cbb028152336004820152602481018490529051600160a060020a039092169163a9059cbb916044808201926020929091908290030181600087803b15801561378057600080fd5b505af1158015613794573d6000803e3d6000fd5b505050506040513d60208110156137aa57600080fd5b5050600186015460408051600160a060020a038616815260208101929092528181018490528515156060830152608082018790525188917fdad617859b2a7c1564706e0938a2689fb1e47e43494954d08b90fb7dff784a8b919081900360a00190a25094509492505050565b60008215156138275750600061355b565b82820282848281151561383657fe5b04146135f257600080fd5b600554604080517f329fec1e00000000000000000000000000000000000000000000000000000000815260048101859052600160a060020a03808516602483015290921660448301525160009173__GatewayLib____________________________9163329fec1e91606480820192602092909190829003018186803b1580156138ca57600080fd5b505af41580156138de573d6000803e3d6000fd5b505050506040513d60208110156138f457600080fd5b50519392505050565b80516020808301516040808501516060860151608087015160a088015184517f205dda680000000000000000000000000000000000000000000000000000000081526004810198909852602488019590955260448701929092526064860152600160a060020a0316608485015260a48401919091525160009273__MessageBus____________________________9263205dda689260c480840193829003018186803b1580156139ac57600080fd5b505af41580156139c0573d6000803e3d6000fd5b505050506040513d60208110156139d657600080fd5b50516000818152600b602090815260409182902085518155908501516001820155908401516002820155606084015160038201556080840151600482018054600160a060020a031916600160a060020a0390921691909117905560a0840151600582015560c0909301516006909301929092555090565b613a5683614277565b8214613aac576040805160e560020a62461bcd02815260206004820152600d60248201527f496e76616c6964206e6f6e636500000000000000000000000000000000000000604482015290519081900360640190fd5b600160a060020a0383166000908152600d60205260409020548015613bc3576000818152600a602052604090205460ff166002816004811115613aeb57fe5b1480613b0257506004816004811115613b0057fe5b145b1515613b7e576040805160e560020a62461bcd02815260206004820152602160248201527f50726576696f75732070726f63657373206973206e6f7420636f6d706c65746560448201527f6400000000000000000000000000000000000000000000000000000000000000606482015290519081900360840190fd5b506000818152600b60205260408120818155600181018290556002810182905560038101829055600481018054600160a060020a031916905560058101829055600601555b50600160a060020a039092166000908152600d602052604090209190915550565b6000828152600c6020526040812054801515613c38576040805160e560020a62461bcd02815260206004820152601e60248201526000805160206143f1833981519152604482015290519081900360640190fd5b73__MessageBus____________________________63e47a9b20600987866009866040518663ffffffff1660e060020a02815260040180868152602001858152602001806020018460ff1660ff168152602001838152602001828103825285818151815260200191508051906020019080838360005b83811015613cc6578181015183820152602001613cae565b50505050905090810190601f168015613cf35780820380516001836020036101000a031916815260200191505b50965050505050505060206040518083038186803b158015613d1457600080fd5b505af4158015613d28573d6000803e3d6000fd5b505050506040513d6020811015613d3e57600080fd5b5060019695505050505050565b600082821115613d5a57600080fd5b50900390565b613d686142f9565b506040805160e0810182529687526020870195909552938501929092526060840152600160a060020a0316608083015260a0820152600060c082015290565b613db0836135d0565b8214613e06576040805160e560020a62461bcd02815260206004820152600e60248201527f496e76616c6964206e6f6e63652e000000000000000000000000000000000000604482015290519081900360640190fd5b600160a060020a0383166000908152600e60205260409020548015613f1d5760008181526009602052604090205460ff166002816004811115613e4557fe5b1480613e5c57506004816004811115613e5a57fe5b145b1515613ed8576040805160e560020a62461bcd02815260206004820152602260248201527f50726576696f75732070726f63657373206973206e6f7420636f6d706c65746560448201527f642e000000000000000000000000000000000000000000000000000000000000606482015290519081900360840190fd5b506000818152600b60205260408120818155600181018290556002810182905560038101829055600481018054600160a060020a031916905560058101829055600601555b50600160a060020a039092166000908152600e602052604090209190915550565b6000848152601460209081526040808320600b9092528220815492918291828511613fb3576040805160e560020a62461bcd02815260206004820152601b60248201527f556e7374616b652072657175657374206d7573742065786973742e0000000000604482015290519081900360640190fd5b613fcb8160060154826003015483600201548b614299565b60068301559250613fe2858463ffffffff613d4b16565b60008a815260146020908152604080832060018101805491859055600160a060020a031982169055600f5482517f4e06bad1000000000000000000000000000000000000000000000000000000008152600160a060020a0392831660048201819052602482018890529351969a50929561010090910490911693634e06bad193604480850194919392918390030190829087803b15801561408257600080fd5b505af1158015614096573d6000803e3d6000fd5b505050506040513d60208110156140ac57600080fd5b5050600f54604080517f4e06bad1000000000000000000000000000000000000000000000000000000008152336004820152602481018790529051610100909204600160a060020a031691634e06bad1916044808201926020929091908290030181600087803b15801561411f57600080fd5b505af1158015614133573d6000803e3d6000fd5b505050506040513d602081101561414957600080fd5b5050600482015460408051600160a060020a0392831681529183166020830152818101889052606082018790526080820186905288151560a083015260c082018a9052518b917f2c66eee0de9967ff72fb960370f68331f353fcd49c1cf2b39257616093a3c740919081900360e00190a25050509450945094915050565b60408051602080825281830190925260609160208201818038833950505060208101929092525090565b6000828201838110156135f257600080fd5b600080821161421157600080fd5b6000828481151561421e57fe5b04949350505050565b600280546001908101918290555414156142415760006002555b565b600081151561425457506000610c2d565b6000828152600b602052604090206001808201546135f29163ffffffff6141f116565b600160a060020a0381166000908152600d60205260408120546135f281614243565b6000806142bc5a6142b0858963ffffffff6141f116565b9063ffffffff613d4b16565b9050848110156142dd576142d6818563ffffffff61381616565b91506142f0565b6142ed858563ffffffff61381616565b91505b94509492505050565b6040805160e081018252600080825260208201819052918101829052606081018290526080810182905260a0810182905260c081019190915290565b828054600181600116156101000203166002900490600052602060002090601f016020900481019282601f1061437657805160ff19168380011785556143a3565b828001600101855582156143a3579182015b828111156143a3578251825591602001919060010190614388565b506143af9291506143b3565b5090565b6143cd91905b808211156143af57600081556001016143b9565b9056fe4f6e6c7920746865206f7267616e697a6174696f6e20697320616c6c6f77656453746f7261676520726f6f74206d757374206e6f74206265207a65726f2e00004d6573736167652068617368206d757374206e6f74206265207a65726f2e000020746f2063616c6c2074686973206d6574686f642e0000000000000000000000a165627a7a723058202a8cae5bb6e4ec6e7bfc0cc388e5903b3b1417601e6c15ebfd146f9ca160cfd30029608060405234801561001057600080fd5b506040516040806105fc8339810180604052604081101561003057600080fd5b508051602090910151600160a060020a03821615156100d657604080517f08c379a000000000000000000000000000000000000000000000000000000000815260206004820152602e60248201527f56616c756520746f6b656e20636f6e74726163742061646472657373206d757360448201527f74206e6f74206265207a65726f2e000000000000000000000000000000000000606482015290519081900360840190fd5b600160a060020a038116151561017357604080517f08c379a000000000000000000000000000000000000000000000000000000000815260206004820152602a60248201527f4761746577617920636f6e74726163742061646472657373206d757374206e6f60448201527f74206265207a65726f2e00000000000000000000000000000000000000000000606482015290519081900360840190fd5b60008054600160a060020a03938416600160a060020a0319918216179091556001805492909316911617905561044e806101ae6000396000f3fe60806040526004361061006c5763ffffffff7c0100000000000000000000000000000000000000000000000000000000600035041663116191b681146100715780634e06bad1146100a25780637bc74225146100ef578063effff82f14610116578063fc0c546a1461012b575b600080fd5b34801561007d57600080fd5b50610086610140565b60408051600160a060020a039092168252519081900360200190f35b3480156100ae57600080fd5b506100db600480360360408110156100c557600080fd5b50600160a060020a03813516906020013561014f565b604080519115158252519081900360200190f35b3480156100fb57600080fd5b5061010461036e565b60408051918252519081900360200190f35b34801561012257600080fd5b50610086610404565b34801561013757600080fd5b50610086610413565b600154600160a060020a031681565b600154600090600160a060020a031633146101f157604080517f08c379a000000000000000000000000000000000000000000000000000000000815260206004820152602360248201527f4f6e6c7920676174657761792063616e2063616c6c207468652066756e63746960448201527f6f6e2e0000000000000000000000000000000000000000000000000000000000606482015290519081900360840190fd5b60008054604080517fa9059cbb000000000000000000000000000000000000000000000000000000008152600160a060020a038781166004830152602482018790529151919092169263a9059cbb92604480820193602093909283900390910190829087803b15801561026357600080fd5b505af1158015610277573d6000803e3d6000fd5b505050506040513d602081101561028d57600080fd5b5051151560011461032557604080517f08c379a000000000000000000000000000000000000000000000000000000000815260206004820152602260248201527f56616c756520746f6b656e207472616e73666572206d7573742073756363657360448201527f732e000000000000000000000000000000000000000000000000000000000000606482015290519081900360840190fd5b604080518381529051600160a060020a0385169133917fbb9c3d63e9684d973fded27f355b4ab89505e3be60298380be985af025d5f1119181900360200190a350600192915050565b60008054604080517f70a082310000000000000000000000000000000000000000000000000000000081523060048201529051600160a060020a03909216916370a0823191602480820192602092909190829003018186803b1580156103d357600080fd5b505afa1580156103e7573d6000803e3d6000fd5b505050506040513d60208110156103fd57600080fd5b5051919050565b600054600160a060020a031681565b600054600160a060020a03169056fea165627a7a723058204205722440723b9f985b4917463aefe5ddc8ee89245f7b2614404999a24b64bc0029",
  "source": "pragma solidity ^0.5.0;\n\n// Copyright 2019 OpenST Ltd.\n//\n// Licensed under the Apache License, Version 2.0 (the \"License\");\n// you may not use this file except in compliance with the License.\n// You may obtain a copy of the License at\n//\n//    http://www.apache.org/licenses/LICENSE-2.0\n//\n// Unless required by applicable law or agreed to in writing, software\n// distributed under the License is distributed on an \"AS IS\" BASIS,\n// WITHOUT WARRANTIES OR CONDITIONS OF ANY KIND, either express or implied.\n// See the License for the specific language governing permissions and\n// limitations under the License.\n//\n// ----------------------------------------------------------------------------\n// Origin Chain: Gateway Contract\n//\n// http://www.simpletoken.org/\n//\n// ----------------------------------------------------------------------------\n\n\n/*\n\n           Origin chain      |       Auxiliary chain\n-------------------------------------------------------------------------------\n           EIP20Gateway - - - - - - - - - - - EIP20CoGateway\n-------------------------------------------------------------------------------\n\n1. Stake and Mint: Normal flow\n\n           stake             --->   confirmStakeIntent\n             |\n      progressStake (HL)     --->   progressMint (HL)\n-------------------------------------------------------------------------------\n2. Stake and Mint (Revert): Normal flow\n\n           stake             --->   confirmStakeIntent\n             |\n        revertStake          --->   confirmRevertStakeIntent\n                                            |\n      progressRevertStake    <---   progressRevertStake\n-------------------------------------------------------------------------------\n3. Stake and Mint: Incase the facilitator is not able to progress\n\n    stake (by facilitator)    --->   confirmStakeIntent (by facilitator)\n                               |\n                        facilitator (offline)\n             |\n     progressStakeWithProof   --->   progressMintWithProof\n-------------------------------------------------------------------------------\n*/\n\nimport \"./SimpleStake.sol\";\nimport \"./GatewayBase.sol\";\nimport \"../utilitytoken/contracts/organization/contracts/OrganizationInterface.sol\";\n\n/**\n * @title EIP20Gateway Contract\n *\n * @notice EIP20Gateway act as medium to send messages from origin chain to\n *         auxiliary chain. Currently gateway supports stake and revert stake message.\n */\ncontract EIP20Gateway is GatewayBase {\n\n    /* Events */\n\n    /** Emitted whenever a stake process is initiated. */\n    event StakeIntentDeclared(\n        bytes32 indexed _messageHash,\n        address _staker,\n        uint256 _stakerNonce,\n        address _beneficiary,\n        uint256 _amount\n    );\n\n    /** Emitted whenever a stake is completed. */\n    event StakeProgressed(\n        bytes32 indexed _messageHash,\n        address _staker,\n        uint256 _stakerNonce,\n        uint256 _amount,\n        bool _proofProgress,\n        bytes32 _unlockSecret\n    );\n\n    /** Emitted whenever a process is initiated to revert stake. */\n    event RevertStakeIntentDeclared(\n        bytes32 indexed _messageHash,\n        address _staker,\n        uint256 _stakerNonce,\n        uint256 _amount\n    );\n\n    /** Emitted whenever a stake is reverted. */\n    event StakeReverted(\n        bytes32 indexed _messageHash,\n        address _staker,\n        uint256 _stakerNonce,\n        uint256 _amount\n    );\n\n    /** Emitted whenever a redeem intent is confirmed. */\n    event RedeemIntentConfirmed(\n        bytes32 indexed _messageHash,\n        address _redeemer,\n        uint256 _redeemerNonce,\n        address _beneficiary,\n        uint256 _amount,\n        uint256 _blockHeight,\n        bytes32 _hashLock\n    );\n\n    /** Emitted whenever a unstake process is complete. */\n    event UnstakeProgressed(\n        bytes32 indexed _messageHash,\n        address _redeemer,\n        address _beneficiary,\n        uint256 _redeemAmount,\n        uint256 _unstakeAmount,\n        uint256 _rewardAmount,\n        bool _proofProgress,\n        bytes32 _unlockSecret\n    );\n\n    /** Emitted whenever a revert redeem intent is confirmed. */\n    event RevertRedeemIntentConfirmed(\n        bytes32 indexed _messageHash,\n        address _redeemer,\n        uint256 _redeemerNonce,\n        uint256 _amount\n    );\n\n    /** Emitted whenever revert redeem is completed. */\n    event RevertRedeemComplete(\n        bytes32 indexed _messageHash,\n        address _redeemer,\n        uint256 _redeemerNonce,\n        uint256 _amount\n    );\n\n\n    /* Struct */\n\n    /**\n     * Stake stores the stake amount, beneficiary address, message data and\n     * facilitator address.\n     */\n    struct Stake {\n\n        /** Amount that will be staked. */\n        uint256 amount;\n\n        /**\n         * Address where the utility tokens will be minted in the\n         * auxiliary chain.\n         */\n        address beneficiary;\n\n        /** Bounty kept by facilitator for stake message transfer. */\n        uint256 bounty;\n    }\n\n    /**\n     * Unstake stores the unstake/redeem information\n     * like unstake/redeem amount, beneficiary address, message data.\n     */\n    struct Unstake {\n\n        /** Amount that will be unstaked. */\n        uint256 amount;\n\n        /** Address that will receive the unstaked value token. */\n        address beneficiary;\n    }\n\n\n    /* Public Variables */\n\n    /** Specifies if the Gateway is activated for any new process. */\n    bool public activated;\n\n    /** Escrow address to lock staked fund. */\n    SimpleStake public stakeVault;\n\n    /**\n     * Address of EIP20 token for which the gateway\n     * will enable facilitation of stake and mint.\n     */\n    EIP20Interface public valueToken;\n\n    /**\n     * Address of ERC20 token in which the facilitator will stake(bounty)\n     * for a process.\n     */\n    EIP20Interface public baseToken;\n\n    /** Address where base token will be burned. */\n    address public burner;\n\n    /** Maps messageHash to the Stake object. */\n    mapping(bytes32 /*messageHash*/ => Stake) stakes;\n\n    /** Maps messageHash to the Unstake object. */\n    mapping(bytes32 /*messageHash*/ => Unstake) unstakes;\n\n\n    /* Modifiers */\n\n    /** Checks that contract is active. */\n    modifier isActive() {\n        require(\n            activated == true,\n            \"Gateway is not activated.\"\n        );\n        _;\n    }\n\n\n    /* Constructor */\n\n    /**\n     * @notice Initialize the contract by providing the ERC20 token address\n     *         for which the gateway will enable facilitation of stake and\n     *         mint.\n     *\n     * @param _valueToken The ERC20 token contract address that will be\n     *               staked and corresponding utility tokens will be minted\n     *               in auxiliary chain.\n     * @param _baseToken The ERC20 token address that will be used for\n     *                     staking bounty from the facilitators.\n     * @param _stateRootProvider Contract address which implements\n     *                           StateRootInterface.\n     * @param _bounty The amount that facilitator will stakes to initiate the\n     *                stake process.\n     * @param _organization Address of an organization contract.\n     * @param _burner Address where base tokens will be burned.\n     * @param _maxStorageRootItems Defines how many storage roots should be\n     *                             stored in circular buffer.\n     */\n    constructor(\n        EIP20Interface _valueToken,\n        EIP20Interface _baseToken,\n        StateRootInterface _stateRootProvider,\n        uint256 _bounty,\n        OrganizationInterface _organization,\n        address _burner,\n        uint256 _maxStorageRootItems\n    )\n        GatewayBase(\n            _stateRootProvider,\n            _bounty,\n            _organization,\n            _maxStorageRootItems\n        )\n        public\n    {\n        require(\n            address(_valueToken) != address(0),\n            \"Value token contract address must not be zero.\"\n        );\n        require(\n            address(_baseToken) != address(0),\n            \"Base token contract address for bounty must not be zero\"\n        );\n        valueToken = _valueToken;\n        baseToken = _baseToken;\n        burner = _burner;\n        // gateway is in-active initially.\n        activated = false;\n        // deploy simpleStake contract that will keep the staked amounts.\n        stakeVault = new SimpleStake(_valueToken, address(this));\n    }\n\n\n    /* External functions */\n\n    /**\n     * @notice Initiates the stake process.  In order to stake the staker\n     *         needs to approve Gateway contract for stake amount.\n     *         Staked amount is transferred from staker address to\n     *         Gateway contract. Bounty amount is also transferred from staker.\n     *\n     * @param _amount Stake amount that will be transferred from the staker\n     *                account.\n     * @param _beneficiary The address in the auxiliary chain where the utility\n     *                     tokens will be minted.\n     * @param _gasPrice Gas price that staker is ready to pay to get the stake\n     *                  and mint process done.\n     * @param _gasLimit Gas limit that staker is ready to pay.\n     * @param _nonce Nonce of the staker address.\n     * @param _hashLock Hash Lock provided by the facilitator.\n     *\n     * @return messageHash_ Message hash is unique for each request.\n     */\n    function stake(\n        uint256 _amount,\n        address _beneficiary,\n        uint256 _gasPrice,\n        uint256 _gasLimit,\n        uint256 _nonce,\n        bytes32 _hashLock\n    )\n        external\n        isActive\n        returns (bytes32 messageHash_)\n    {\n        address staker = msg.sender;\n\n        require(\n            _amount > uint256(0),\n            \"Stake amount must not be zero.\"\n        );\n\n        require(\n            _beneficiary != address(0),\n            \"Beneficiary address must not be zero.\"\n        );\n\n        /*\n         * Maximum reward possible is _gasPrice * _gasLimit, we check this\n         * upfront in this function to make sure that after minting of the\n         * utility tokens it is possible to give the reward to the facilitator.\n         */\n        require(\n            _amount > _gasPrice.mul(_gasLimit),\n            \"Maximum possible reward must be less than the stake amount.\"\n        );\n\n        // Get the stake intent hash.\n        bytes32 intentHash = GatewayLib.hashStakeIntent(\n            _amount,\n            _beneficiary,\n            address(this)\n        );\n\n        MessageBus.Message memory message = getMessage(\n            intentHash,\n            _nonce,\n            _gasPrice,\n            _gasLimit,\n            staker,\n            _hashLock\n        );\n\n        messageHash_ = storeMessage(message);\n\n        registerOutboxProcess(\n            staker,\n            _nonce,\n            messageHash_\n        );\n\n        // New stake object\n        stakes[messageHash_] = Stake({\n            amount : _amount,\n            beneficiary : _beneficiary,\n            bounty : bounty\n        });\n\n        // Declare message in outbox\n        MessageBus.declareMessage(\n            messageBox,\n            messages[messageHash_]\n        );\n\n        // Transfer staker amount to the gateway.\n        require(\n            valueToken.transferFrom(staker, address(this), _amount),\n            \"Stake amount must be transferred to gateway\"\n        );\n\n        // Transfer the bounty amount to the gateway.\n        require(\n            baseToken.transferFrom(staker, address(this), bounty),\n            \"Bounty amount must be transferred to gateway\"\n        );\n\n        emit StakeIntentDeclared(\n            messageHash_,\n            staker,\n            _nonce,\n            _beneficiary,\n            _amount\n        );\n    }\n\n    /**\n     * @notice Completes the stake process.\n     *\n     * @dev Message bus ensures correct execution sequence of methods and also\n     *      provides safety mechanism for any possible re-entrancy attack.\n     *\n     * @param _messageHash Message hash.\n     * @param _unlockSecret Unlock secret for the hashLock provide by the\n     *                      staker while initiating the stake.\n     *\n     * @return staker_ Staker address.\n     * @return stakeAmount_ Stake amount.\n     */\n    function progressStake(\n        bytes32 _messageHash,\n        bytes32 _unlockSecret\n    )\n        external\n        returns (\n            address staker_,\n            uint256 stakeAmount_\n        )\n    {\n        require(\n            _messageHash != bytes32(0),\n            \"Message hash must not be zero\"\n        );\n\n        // Get the message object\n        MessageBus.Message storage message = messages[_messageHash];\n\n        // Progress outbox\n        MessageBus.progressOutbox(\n            messageBox,\n            message,\n            _unlockSecret\n        );\n\n        (staker_, stakeAmount_) = progressStakeInternal(\n            _messageHash,\n            message,\n            _unlockSecret,\n            false\n        );\n    }\n\n    /**\n     * @notice Completes the stake process by providing the merkle proof\n     *         instead of unlockSecret. In case the facilitator process is not\n     *         able to complete the stake and mint process then this is an\n     *         alternative approach to complete the process\n     *\n     * @dev This can be called to prove that the inbox status of messageBox on\n     *      CoGateway is either declared or progressed.\n     *\n     * @param _messageHash Message hash.\n     * @param _rlpParentNodes RLP encoded parent node data to prove in\n     *                        messageBox outbox of CoGateway.\n     * @param _blockHeight Block number for which the proof is valid.\n     * @param _messageStatus Message status i.e. Declared or Progressed that\n     *                       will be proved.\n     *\n     * @return staker_ Staker address\n     * @return stakeAmount_ Stake amount\n     */\n    function progressStakeWithProof(\n        bytes32 _messageHash,\n        bytes calldata _rlpParentNodes,\n        uint256 _blockHeight,\n        uint256 _messageStatus\n    )\n        external\n        returns (\n            address staker_,\n            uint256 stakeAmount_\n        )\n    {\n        require(\n            _messageHash != bytes32(0),\n            \"Message hash must not be zero.\"\n        );\n        require(\n            _rlpParentNodes.length > 0,\n            \"RLP encoded parent nodes must not be zero.\"\n        );\n\n        bytes32 storageRoot = storageRoots[_blockHeight];\n\n        require(\n            storageRoot != bytes32(0),\n            \"Storage root must not be zero.\"\n        );\n\n        // Get the message object\n        MessageBus.Message storage message = messages[_messageHash];\n\n        MessageBus.progressOutboxWithProof(\n            messageBox,\n            message,\n            _rlpParentNodes,\n            MESSAGE_BOX_OFFSET,\n            storageRoot,\n            MessageBus.MessageStatus(_messageStatus)\n        );\n\n        (staker_, stakeAmount_) = progressStakeInternal(\n            _messageHash,\n            message,\n            bytes32(0),\n            true\n        );\n    }\n\n    /**\n     * @notice Revert stake process and get the stake\n     *         amount back. Only staker can revert stake by providing\n     *         penalty i.e. 1.5 times of bounty amount. On progress revert stake\n     *         penalty and facilitator bounty will be burned.\n     *\n     * @param _messageHash Message hash.\n     *\n     * @return staker_ Staker address\n     * @return stakerNonce_ Staker nonce\n     * @return amount_ Stake amount\n     */\n    function revertStake(\n        bytes32 _messageHash\n    )\n        external\n        returns (\n            address staker_,\n            uint256 stakerNonce_,\n            uint256 amount_\n        )\n    {\n        require(\n            _messageHash != bytes32(0),\n            \"Message hash must not be zero.\"\n        );\n\n        MessageBus.Message storage message = messages[_messageHash];\n\n        require(\n            message.sender == msg.sender,\n            \"Only staker can revert stake.\"\n        );\n\n        // Declare stake revocation.\n        MessageBus.declareRevocationMessage(\n            messageBox,\n            message\n        );\n\n        staker_ = message.sender;\n        stakerNonce_ = message.nonce;\n        amount_ = stakes[_messageHash].amount;\n\n        // Penalty charged to staker for revert stake.\n        uint256 penalty = penaltyFromBounty(stakes[_messageHash].bounty);\n\n        // Transfer the penalty amount to burner.\n        require(\n            baseToken.transferFrom(msg.sender, burner, penalty),\n            \"Staker must approve gateway for penalty amount.\"\n        );\n\n        emit RevertStakeIntentDeclared(\n            _messageHash,\n            staker_,\n            stakerNonce_,\n            amount_\n        );\n    }\n\n    /**\n     * @notice Complete revert stake by providing the merkle proof.\n     *         This method will return stake amount to staker and burn\n     *         facilitator bounty.\n     *\n     * @dev Message bus ensures correct execution sequence of methods and also\n     *      provides safety mechanism for any possible re-entrancy attack.\n     *\n     * @param _messageHash Message hash.\n     * @param _blockHeight Block number for which the proof is valid\n     * @param _rlpParentNodes RLP encoded parent node data to prove\n     *                        DeclaredRevocation in messageBox inbox of\n     *                        CoGateway.\n     *\n     * @return staker_ Staker address.\n     * @return stakerNonce_ Staker nonce.\n     * @return amount_ Stake amount.\n     */\n    function progressRevertStake(\n        bytes32 _messageHash,\n        uint256 _blockHeight,\n        bytes calldata _rlpParentNodes\n    )\n        external\n        returns (\n            address staker_,\n            uint256 stakerNonce_,\n            uint256 amount_\n        )\n    {\n        require(\n            _messageHash != bytes32(0),\n            \"Message hash must not be zero.\"\n        );\n        require(\n            _rlpParentNodes.length > 0,\n            \"RLP parent nodes must not be zero.\"\n        );\n\n        // Get the message object.\n        MessageBus.Message storage message = messages[_messageHash];\n        require(\n            message.intentHash != bytes32(0),\n            \"StakeIntentHash must not be zero.\"\n        );\n\n        // Get the storageRoot for the given block height.\n        bytes32 storageRoot = storageRoots[_blockHeight];\n        require(\n            storageRoot != bytes32(0),\n            \"Storage root must not be zero.\"\n        );\n\n        amount_ = stakes[_messageHash].amount;\n\n        require(\n            amount_ > 0,\n            \"Stake request must exist.\"\n        );\n\n        staker_ = message.sender;\n        stakerNonce_ = message.nonce;\n        uint256 stakeBounty = stakes[_messageHash].bounty;\n\n        // Progress with revocation message.\n        MessageBus.progressOutboxRevocation(\n            messageBox,\n            message,\n            MESSAGE_BOX_OFFSET,\n            _rlpParentNodes,\n            storageRoot,\n            MessageBus.MessageStatus.Revoked\n        );\n\n        delete stakes[_messageHash];\n\n        // Transfer the staked amount to the staker.\n        valueToken.transfer(message.sender, amount_);\n\n        // Burn facilitator bounty.\n        baseToken.transfer(burner, stakeBounty);\n\n        emit StakeReverted(\n            _messageHash,\n            staker_,\n            stakerNonce_,\n            amount_\n        );\n    }\n\n    /**\n     * @notice Declare redeem intent.\n     *\n     * @param _redeemer Redeemer address.\n     * @param _redeemerNonce Redeemer nonce.\n     * @param _beneficiary Address where the unstaked value tokens will be\n     *                     transferred.\n     * @param _amount Redeem amount.\n     * @param _gasPrice Gas price that redeemer is ready to pay to get the\n     *                  redeem and unstake process done.\n     * @param _gasLimit Gas limit that redeemer is ready to pay.\n     * @param _blockHeight Block number for which the proof is valid.\n     * @param _hashLock Hash lock.\n     * @param _rlpParentNodes RLP encoded parent node data to prove\n     *                        Declared in messageBox outbox of\n     *                        CoGateway.\n     *\n     * @return messageHash_ Message hash.\n     */\n    function confirmRedeemIntent(\n        address _redeemer,\n        uint256 _redeemerNonce,\n        address _beneficiary,\n        uint256 _amount,\n        uint256 _gasPrice,\n        uint256 _gasLimit,\n        uint256 _blockHeight,\n        bytes32 _hashLock,\n        bytes calldata _rlpParentNodes\n    )\n        external\n        returns (bytes32 messageHash_)\n    {\n        // Get the initial gas.\n        uint256 initialGas = gasleft();\n\n        require(\n            _redeemer != address(0),\n            \"Redeemer address must not be zero.\"\n        );\n        require(\n            _beneficiary != address(0),\n            \"Beneficiary address must not be zero.\"\n        );\n        require(\n            _amount != 0,\n            \"Redeem amount must not be zero.\"\n        );\n        require(\n            _rlpParentNodes.length > 0,\n            \"RLP encoded parent nodes must not be zero.\"\n        );\n\n        /*\n         * Maximum reward possible is _gasPrice * _gasLimit, we check this\n         * upfront in this function to make sure that after unstake of the\n         * value tokens it is possible to give the reward to the facilitator.\n         */\n        require(\n            _amount > _gasPrice.mul(_gasLimit),\n            \"Maximum possible reward must be less than the redeem amount.\"\n        );\n\n        bytes32 intentHash = hashRedeemIntent(\n            _amount,\n            _beneficiary\n        );\n\n        MessageBus.Message memory message = MessageBus.Message(\n            intentHash,\n            _redeemerNonce,\n            _gasPrice,\n            _gasLimit,\n            _redeemer,\n            _hashLock,\n            0 // Gas consumed will be updated at the end of this function.\n        );\n        messageHash_ = storeMessage(message);\n\n        registerInboxProcess(\n            message.sender,\n            message.nonce,\n            messageHash_\n        );\n\n        unstakes[messageHash_] = Unstake({\n            amount : _amount,\n            beneficiary : _beneficiary\n        });\n\n        confirmRedeemIntentInternal(\n            messages[messageHash_],\n            _blockHeight,\n            _rlpParentNodes\n        );\n\n        // Emit RedeemIntentConfirmed event.\n        emit RedeemIntentConfirmed(\n            messageHash_,\n            _redeemer,\n            _redeemerNonce,\n            _beneficiary,\n            _amount,\n            _blockHeight,\n            _hashLock\n        );\n\n        // Update the gas consumed for this function.\n        messages[messageHash_].gasConsumed = initialGas.sub(gasleft());\n    }\n\n    /**\n     * @notice Complete unstake.\n     *\n     * @dev Message bus ensures correct execution sequence of methods and also\n     *      provides safety mechanism for any possible re-entrancy attack.\n     *\n     * @param _messageHash Message hash.\n     * @param _unlockSecret Unlock secret for the hashLock provide by the\n     *                      facilitator while initiating the redeem.\n     *\n     * @return redeemer_ Redeemer address.\n     * @return redeemAmount_ Total amount for which the redeem was\n     *                       initiated. The reward amount is deducted from the\n     *                       total redeem amount and is given to the\n     *                       facilitator.\n     * @return unstakeAmount_ Actual unstake amount, after deducting the reward\n     *                        from the total redeem amount.\n     * @return rewardAmount_ Reward amount that is transferred to facilitator.\n     */\n    function progressUnstake(\n        bytes32 _messageHash,\n        bytes32 _unlockSecret\n    )\n        external\n        returns (\n            uint256 redeemAmount_,\n            uint256 unstakeAmount_,\n            uint256 rewardAmount_\n        )\n    {\n        // Get the inital gas.\n        uint256 initialGas = gasleft();\n\n        require(\n            _messageHash != bytes32(0),\n            \"Message hash must not be zero.\"\n        );\n\n        MessageBus.Message storage message = messages[_messageHash];\n\n        MessageBus.progressInbox(\n            messageBox,\n            message,\n            _unlockSecret\n        );\n        (redeemAmount_, unstakeAmount_, rewardAmount_) =\n        progressUnstakeInternal(_messageHash, initialGas, _unlockSecret, false);\n\n    }\n\n    /**\n     * @notice Gets the penalty amount. If the message hash does not exist in\n     *         stakes mapping it will return zero amount. If the message is\n     *         already progressed or revoked then the penalty amount will be\n     *         zero.\n     *\n     * @param _messageHash Message hash.\n     *\n     * @return penalty_ Penalty amount.\n     */\n    function penalty(bytes32 _messageHash)\n        external\n        view\n        returns (uint256 penalty_)\n    {\n        penalty_ = super.penaltyFromBounty(stakes[_messageHash].bounty);\n    }\n\n    /**\n     * @notice Completes the redeem process by providing the merkle proof\n     *         instead of unlockSecret. In case the facilitator process is not\n     *         able to complete the redeem and unstake process then this is an\n     *         alternative approach to complete the process\n     *\n     * @dev This can be called to prove that the outbox status of messageBox on\n     *      CoGateway is either declared or progressed.\n     *\n     * @param _messageHash Message hash.\n     * @param _rlpParentNodes RLP encoded parent node data to prove in\n     *                        messageBox inbox of CoGateway.\n     * @param _blockHeight Block number for which the proof is valid.\n     * @param _messageStatus Message status i.e. Declared or Progressed that\n     *                       will be proved.\n     *\n     * @return redeemAmount_ Total amount for which the redeem was\n     *                       initiated. The reward amount is deducted from the\n     *                       total redeem amount and is given to the\n     *                       facilitator.\n     * @return unstakeAmount_ Actual unstake amount, after deducting the reward\n     *                        from the total redeem amount.\n     * @return rewardAmount_ Reward amount that is transferred to facilitator.\n     */\n    function progressUnstakeWithProof(\n        bytes32 _messageHash,\n        bytes calldata _rlpParentNodes,\n        uint256 _blockHeight,\n        uint256 _messageStatus\n    )\n        external\n        returns (\n            uint256 redeemAmount_,\n            uint256 unstakeAmount_,\n            uint256 rewardAmount_\n        )\n    {\n        // Get the initial gas.\n        uint256 initialGas = gasleft();\n\n        require(\n            _messageHash != bytes32(0),\n            \"Message hash must not be zero.\"\n        );\n        require(\n            _rlpParentNodes.length > 0,\n            \"RLP parent nodes must not be zero\"\n        );\n\n        // Get the storage root for the given block height.\n        bytes32 storageRoot = storageRoots[_blockHeight];\n        require(\n            storageRoot != bytes32(0),\n            \"Storage root must not be zero\"\n        );\n\n        MessageBus.Message storage message = messages[_messageHash];\n\n        MessageBus.progressInboxWithProof(\n            messageBox,\n            message,\n            _rlpParentNodes,\n            MESSAGE_BOX_OFFSET,\n            storageRoot,\n            MessageBus.MessageStatus(_messageStatus)\n        );\n\n        (redeemAmount_, unstakeAmount_, rewardAmount_) =\n        progressUnstakeInternal(_messageHash, initialGas, bytes32(0), true);\n    }\n\n    /**\n     * @notice Declare redeem revert intent.\n     *         This will set message status to revoked. This method will also\n     *         clear unstakes mapping storage.\n     *\n     * @param _messageHash Message hash.\n     * @param _blockHeight Block number for which the proof is valid.\n     * @param _rlpParentNodes RLP encoded parent node data to prove\n     *                        DeclaredRevocation in messageBox outbox of\n     *                        CoGateway.\n     *\n     * @return redeemer_ Redeemer address.\n     * @return redeemerNonce_ Redeemer nonce.\n     * @return amount_ Redeem amount.\n     */\n    function confirmRevertRedeemIntent(\n        bytes32 _messageHash,\n        uint256 _blockHeight,\n        bytes calldata _rlpParentNodes\n    )\n        external\n        returns (\n            address redeemer_,\n            uint256 redeemerNonce_,\n            uint256 amount_\n        )\n    {\n\n        require(\n            _messageHash != bytes32(0),\n            \"Message hash must not be zero.\"\n        );\n        require(\n            _rlpParentNodes.length > 0,\n            \"RLP parent nodes must not be zero.\"\n        );\n\n        amount_ = unstakes[_messageHash].amount;\n\n        require(\n            amount_ > uint256(0),\n            \"Unstake amount must not be zero.\"\n        );\n\n        delete unstakes[_messageHash];\n\n        // Get the message object.\n        MessageBus.Message storage message = messages[_messageHash];\n        require(\n            message.intentHash != bytes32(0),\n            \"RevertRedeem intent hash must not be zero.\"\n        );\n\n        // Get the storage root\n        bytes32 storageRoot = storageRoots[_blockHeight];\n        require(\n            storageRoot != bytes32(0),\n            \"Storage root must not be zero.\"\n        );\n\n        // Confirm revocation\n        MessageBus.confirmRevocation(\n            messageBox,\n            message,\n            _rlpParentNodes,\n            MESSAGE_BOX_OFFSET,\n            storageRoot\n        );\n\n        redeemer_ = message.sender;\n        redeemerNonce_ = message.nonce;\n\n        emit RevertRedeemIntentConfirmed(\n            _messageHash,\n            redeemer_,\n            redeemerNonce_,\n            amount_\n        );\n    }\n\n    /**\n     * @notice Activate Gateway contract. Can be set only by the\n     *         Organization address only once by passing co-gateway address.\n     *\n     * @param _coGatewayAddress Address of cogateway.\n     *\n     * @return success_ `true` if value is set\n     */\n    function activateGateway(\n            address _coGatewayAddress\n    )\n        external\n        onlyOrganization\n        returns (bool success_)\n    {\n\n        require(\n            _coGatewayAddress != address(0),\n            \"Co-gateway address must not be zero.\"\n        );\n        require(\n            remoteGateway == address(0),\n            \"Gateway was already activated once.\"\n        );\n\n        remoteGateway = _coGatewayAddress;\n\n        // update the encodedGatewayPath\n        encodedGatewayPath = BytesLib.bytes32ToBytes(\n            keccak256(abi.encodePacked(remoteGateway))\n        );\n        activated = true;\n        success_ = true;\n    }\n\n    /**\n     * @notice Deactivate Gateway contract. Can be set only by the\n     *         organization address\n     *\n     * @return success_  `true` if value is set\n     */\n    function deactivateGateway()\n        external\n        onlyOrganization\n        returns (bool success_)\n    {\n        require(\n            activated == true,\n            \"Gateway is already deactivated.\"\n        );\n        activated = false;\n        success_ = true;\n    }\n\n    /**\n     * @notice Returns the value of valueToken.\n     *\n     * @dev This function supports previous versions of this contract's ABI\n     *      that expect a public function, token, that returns the address\n     *      of the value token.\n     */\n    function token()\n        external\n        view\n        returns (address valueToken_)\n    {\n        valueToken_ = address(valueToken);\n    }\n\n    /* Private functions */\n\n    /**\n     * @notice Private function to execute confirm redeem intent.\n     *\n     * @dev This function is to avoid stack too deep error in\n     *      confirmRedeemIntent function.\n     *\n     * @param _message Message object.\n     * @param _blockHeight Block number for which the proof is valid.\n     * @param _rlpParentNodes RLP encoded parent nodes.\n     *\n     * @return `true` if executed successfully.\n     */\n    function confirmRedeemIntentInternal(\n        MessageBus.Message storage _message,\n        uint256 _blockHeight,\n        bytes memory _rlpParentNodes\n    )\n        private\n        returns (bool)\n    {\n        // Get storage root.\n        bytes32 storageRoot = storageRoots[_blockHeight];\n        require(\n            storageRoot != bytes32(0),\n            \"Storage root must not be zero.\"\n        );\n\n        // Confirm message.\n        MessageBus.confirmMessage(\n            messageBox,\n            _message,\n            _rlpParentNodes,\n            MESSAGE_BOX_OFFSET,\n            storageRoot\n        );\n\n        return true;\n    }\n\n    /**\n     * @notice Private function contains logic for process stake.\n     *\n     * @param _messageHash Message hash.\n     * @param _message Message object.\n     * @param _unlockSecret For process with hash lock, proofProgress event\n     *                      param is set to false otherwise set to true.\n     *\n     * @return staker_ Staker address\n     * @return stakeAmount_ Stake amount\n     */\n    function progressStakeInternal(\n        bytes32 _messageHash,\n        MessageBus.Message storage _message,\n        bytes32 _unlockSecret,\n        bool _proofProgress\n    )\n        private\n        returns (\n            address staker_,\n            uint256 stakeAmount_\n        )\n    {\n\n        // Get the staker address\n        staker_ = _message.sender;\n\n        // Get the stake amount.\n        stakeAmount_ = stakes[_messageHash].amount;\n\n        require(\n            stakeAmount_ > 0,\n            \"Stake request must exist.\"\n        );\n\n        uint256 stakedBounty = stakes[_messageHash].bounty;\n\n        delete stakes[_messageHash];\n\n        // Transfer the staked amount to stakeVault.\n        valueToken.transfer(address(stakeVault), stakeAmount_);\n\n        baseToken.transfer(msg.sender, stakedBounty);\n\n        emit StakeProgressed(\n            _messageHash,\n            staker_,\n            _message.nonce,\n            stakeAmount_,\n            _proofProgress,\n            _unlockSecret\n        );\n    }\n\n    /**\n     * @notice This is internal method for process unstake called from external\n     *         methods which processUnstake(with hashlock) and\n     *         processUnstakeWithProof\n     *\n     * @param _messageHash hash to identify message\n     * @param _initialGas initial available gas during process unstake call.\n     * @param _unlockSecret Block number for which the proof is valid\n     * @param _proofProgress true if progress with proof and false if\n     *                       progress with unlock secret.\n     *\n     * @return redeemAmount_ Total amount for which the redeem was\n     *                       initiated. The reward amount is deducted from the\n     *                       total redeem amount and is given to the\n     *                       facilitator.\n     * @return unstakeAmount_ Actual unstake amount, after deducting the reward\n     *                        from the total redeem amount.\n     * @return rewardAmount_ Reward amount that is transferred to facilitator\n     */\n    function progressUnstakeInternal(\n        bytes32 _messageHash,\n        uint256 _initialGas,\n        bytes32 _unlockSecret,\n        bool _proofProgress\n    )\n        private\n        returns (\n            uint256 redeemAmount_,\n            uint256 unstakeAmount_,\n            uint256 rewardAmount_\n        )\n    {\n\n        Unstake storage unStake = unstakes[_messageHash];\n        // Get the message object.\n        MessageBus.Message storage message = messages[_messageHash];\n\n        redeemAmount_ = unStake.amount;\n\n        require(\n            redeemAmount_ > 0,\n            \"Unstake request must exist.\"\n        );\n        /*\n         * Reward calculation depends upon\n         *  - the gas consumed in target chain for confirmation and progress steps.\n         *  - gas price and gas limit provided in the message.\n         */\n        (rewardAmount_, message.gasConsumed) = feeAmount(\n            message.gasConsumed,\n            message.gasLimit,\n            message.gasPrice,\n            _initialGas\n        );\n\n        unstakeAmount_ = redeemAmount_.sub(rewardAmount_);\n\n        address beneficiary = unstakes[_messageHash].beneficiary;\n\n        delete unstakes[_messageHash];\n\n        // Release the amount to beneficiary, but with reward subtracted.\n        stakeVault.releaseTo(beneficiary, unstakeAmount_);\n\n        // Reward facilitator with the reward amount.\n        stakeVault.releaseTo(msg.sender, rewardAmount_);\n\n        emit UnstakeProgressed(\n            _messageHash,\n            message.sender,\n            beneficiary,\n            redeemAmount_,\n            unstakeAmount_,\n            rewardAmount_,\n            _proofProgress,\n            _unlockSecret\n        );\n\n    }\n\n    /**\n     * @notice Private function to calculate redeem intent hash.\n     *\n     * @dev This function is to avoid stack too deep error in\n     *      confirmRedeemIntent function.\n     *\n     * @param _amount Redeem amount.\n     * @param _beneficiary Unstake account.\n     *\n     * @return bytes32 Redeem intent hash.\n     */\n    function hashRedeemIntent(\n        uint256 _amount,\n        address _beneficiary\n    )\n        private\n        view\n        returns(bytes32)\n    {\n        return GatewayLib.hashRedeemIntent(\n            _amount,\n            _beneficiary,\n            remoteGateway\n        );\n    }\n\n}\n",
  "sourcePath": "/Users/abhay/Documents/projects/abhayforks/mosaic-contracts/contracts/gateway/EIP20Gateway.sol",
  "compiler": {
    "name": "solc",
    "version": "0.5.0+commit.1d4f565a.Emscripten.clang"
  },
  "schemaVersion": "3.0.1",
  "updatedAt": "2019-08-29T08:15:53.356Z",
  "devdoc": {
    "methods": {
      "activateGateway(address)": {
        "params": {
          "_coGatewayAddress": "Address of cogateway."
        },
        "return": "success_ `true` if value is set"
      },
      "confirmBountyAmountChange()": {
        "return": "changedBountyAmount_  updated bounty amount.previousBountyAmount_ previous bounty amount."
      },
      "confirmRedeemIntent(address,uint256,address,uint256,uint256,uint256,uint256,bytes32,bytes)": {
        "params": {
          "_amount": "Redeem amount.",
          "_beneficiary": "Address where the unstaked value tokens will be                    transferred.",
          "_blockHeight": "Block number for which the proof is valid.",
          "_gasLimit": "Gas limit that redeemer is ready to pay.",
          "_gasPrice": "Gas price that redeemer is ready to pay to get the                 redeem and unstake process done.",
          "_hashLock": "Hash lock.",
          "_redeemer": "Redeemer address.",
          "_redeemerNonce": "Redeemer nonce.",
          "_rlpParentNodes": "RLP encoded parent node data to prove                       Declared in messageBox outbox of                       CoGateway."
        },
        "return": "messageHash_ Message hash."
      },
      "confirmRevertRedeemIntent(bytes32,uint256,bytes)": {
        "params": {
          "_blockHeight": "Block number for which the proof is valid.",
          "_messageHash": "Message hash.",
          "_rlpParentNodes": "RLP encoded parent node data to prove                       DeclaredRevocation in messageBox outbox of                       CoGateway."
        },
        "return": "redeemer_ Redeemer address.redeemerNonce_ Redeemer nonce.amount_ Redeem amount."
      },
      "constructor": {
        "params": {
          "_baseToken": "The ERC20 token address that will be used for                    staking bounty from the facilitators.",
          "_bounty": "The amount that facilitator will stakes to initiate the               stake process.",
          "_burner": "Address where base tokens will be burned.",
          "_maxStorageRootItems": "Defines how many storage roots should be                            stored in circular buffer.",
          "_organization": "Address of an organization contract.",
          "_stateRootProvider": "Contract address which implements                          StateRootInterface.",
          "_valueToken": "The ERC20 token contract address that will be              staked and corresponding utility tokens will be minted              in auxiliary chain."
        }
      },
      "deactivateGateway()": {
        "return": "success_  `true` if value is set"
      },
      "getInboxActiveProcess(address)": {
        "params": {
          "_account": "Account address."
        },
        "return": "messageHash_ Message hash.status_ Message status."
      },
      "getInboxMessageStatus(bytes32)": {
        "params": {
          "_messageHash": "Message hash to get the status."
        },
        "return": "status_ Message status."
      },
      "getNonce(address)": {
        "params": {
          "_account": "Account address for which the nonce is to be fetched."
        },
        "return": "nonce."
      },
      "getOutboxActiveProcess(address)": {
        "params": {
          "_account": "Account address."
        },
        "return": "messageHash_ Message hash.status_ Message status."
      },
      "getOutboxMessageStatus(bytes32)": {
        "params": {
          "_messageHash": "Message hash to get the status."
        },
        "return": "status_ Message status."
      },
      "initiateBountyAmountChange(uint256)": {
        "params": {
          "_proposedBounty": "proposed bounty amount."
        },
        "return": "uint256 proposed bounty amount."
      },
      "penalty(bytes32)": {
        "params": {
          "_messageHash": "Message hash."
        },
        "return": "penalty_ Penalty amount."
      },
      "progressRevertStake(bytes32,uint256,bytes)": {
        "details": "Message bus ensures correct execution sequence of methods and also     provides safety mechanism for any possible re-entrancy attack.",
        "params": {
          "_blockHeight": "Block number for which the proof is valid",
          "_messageHash": "Message hash.",
          "_rlpParentNodes": "RLP encoded parent node data to prove                       DeclaredRevocation in messageBox inbox of                       CoGateway."
        },
        "return": "staker_ Staker address.stakerNonce_ Staker nonce.amount_ Stake amount."
      },
      "progressStake(bytes32,bytes32)": {
        "details": "Message bus ensures correct execution sequence of methods and also     provides safety mechanism for any possible re-entrancy attack.",
        "params": {
          "_messageHash": "Message hash.",
          "_unlockSecret": "Unlock secret for the hashLock provide by the                     staker while initiating the stake."
        },
        "return": "staker_ Staker address.stakeAmount_ Stake amount."
      },
      "progressStakeWithProof(bytes32,bytes,uint256,uint256)": {
        "details": "This can be called to prove that the inbox status of messageBox on     CoGateway is either declared or progressed.",
        "params": {
          "_blockHeight": "Block number for which the proof is valid.",
          "_messageHash": "Message hash.",
          "_messageStatus": "Message status i.e. Declared or Progressed that                      will be proved.",
          "_rlpParentNodes": "RLP encoded parent node data to prove in                       messageBox outbox of CoGateway."
        },
        "return": "staker_ Staker addressstakeAmount_ Stake amount"
      },
      "progressUnstake(bytes32,bytes32)": {
        "details": "Message bus ensures correct execution sequence of methods and also     provides safety mechanism for any possible re-entrancy attack.",
        "params": {
          "_messageHash": "Message hash.",
          "_unlockSecret": "Unlock secret for the hashLock provide by the                     facilitator while initiating the redeem."
        },
        "return": "redeemer_ Redeemer address.redeemAmount_ Total amount for which the redeem was                      initiated. The reward amount is deducted from the                      total redeem amount and is given to the                      facilitator.unstakeAmount_ Actual unstake amount, after deducting the reward                       from the total redeem amount.rewardAmount_ Reward amount that is transferred to facilitator."
      },
      "progressUnstakeWithProof(bytes32,bytes,uint256,uint256)": {
        "details": "This can be called to prove that the outbox status of messageBox on     CoGateway is either declared or progressed.",
        "params": {
          "_blockHeight": "Block number for which the proof is valid.",
          "_messageHash": "Message hash.",
          "_messageStatus": "Message status i.e. Declared or Progressed that                      will be proved.",
          "_rlpParentNodes": "RLP encoded parent node data to prove in                       messageBox inbox of CoGateway."
        },
        "return": "redeemAmount_ Total amount for which the redeem was                      initiated. The reward amount is deducted from the                      total redeem amount and is given to the                      facilitator.unstakeAmount_ Actual unstake amount, after deducting the reward                       from the total redeem amount.rewardAmount_ Reward amount that is transferred to facilitator."
      },
      "proveGateway(uint256,bytes,bytes)": {
        "params": {
          "_blockHeight": "Block height at which Gateway/CoGateway is to be                     proven.",
          "_rlpAccount": "RLP encoded account node object.",
          "_rlpParentNodes": "RLP encoded value of account proof parent nodes."
        },
        "return": "`true` if Gateway account is proved"
      },
      "revertStake(bytes32)": {
        "params": {
          "_messageHash": "Message hash."
        },
        "return": "staker_ Staker addressstakerNonce_ Staker nonceamount_ Stake amount"
      },
      "stake(uint256,address,uint256,uint256,uint256,bytes32)": {
        "params": {
          "_amount": "Stake amount that will be transferred from the staker               account.",
          "_beneficiary": "The address in the auxiliary chain where the utility                    tokens will be minted.",
          "_gasLimit": "Gas limit that staker is ready to pay.",
          "_gasPrice": "Gas price that staker is ready to pay to get the stake                 and mint process done.",
          "_hashLock": "Hash Lock provided by the facilitator.",
          "_nonce": "Nonce of the staker address."
        },
        "return": "messageHash_ Message hash is unique for each request."
      },
      "token()": {
        "details": "This function supports previous versions of this contract's ABI     that expect a public function, token, that returns the address     of the value token."
      }
    },
    "title": "EIP20Gateway Contract"
  },
  "userdoc": {
    "methods": {
      "activateGateway(address)": {
        "notice": "Activate Gateway contract. Can be set only by the        Organization address only once by passing co-gateway address."
      },
      "confirmBountyAmountChange()": {
        "notice": "Method allows organization to confirm proposed bounty amount        after unlock period."
      },
      "confirmRedeemIntent(address,uint256,address,uint256,uint256,uint256,uint256,bytes32,bytes)": {
        "notice": "Declare redeem intent."
      },
      "confirmRevertRedeemIntent(bytes32,uint256,bytes)": {
        "notice": "Declare redeem revert intent.        This will set message status to revoked. This method will also        clear unstakes mapping storage."
      },
      "constructor": "Initialize the contract by providing the ERC20 token address        for which the gateway will enable facilitation of stake and        mint.",
      "deactivateGateway()": {
        "notice": "Deactivate Gateway contract. Can be set only by the        organization address"
      },
      "getInboxActiveProcess(address)": {
        "notice": "Method to get the active message hash and its status from inbox        for the given account address. If message hash does not exist        for the given account address then it will return zero hash and        undeclared status."
      },
      "getInboxMessageStatus(bytes32)": {
        "notice": "Method to get the inbox message status for the given message        hash. If message hash does not exist then it will return        undeclared status."
      },
      "getNonce(address)": {
        "notice": "Get the nonce for the given account address."
      },
      "getOutboxActiveProcess(address)": {
        "notice": "Method to get the active message hash and its status from outbox        for the given account address. If message hash does not exist        for the given account address then it will return zero hash and        undeclared status."
      },
      "getOutboxMessageStatus(bytes32)": {
        "notice": "Method to get the outbox message status for the given message        hash. If message hash does not exist then it will return        undeclared status."
      },
      "initiateBountyAmountChange(uint256)": {
        "notice": "Method allows organization to propose new bounty amount."
      },
      "penalty(bytes32)": {
        "notice": "Gets the penalty amount. If the message hash does not exist in        stakes mapping it will return zero amount. If the message is        already progressed or revoked then the penalty amount will be        zero."
      },
      "progressRevertStake(bytes32,uint256,bytes)": {
        "notice": "Complete revert stake by providing the merkle proof.        This method will return stake amount to staker and burn        facilitator bounty."
      },
      "progressStake(bytes32,bytes32)": {
        "notice": "Completes the stake process."
      },
      "progressStakeWithProof(bytes32,bytes,uint256,uint256)": {
        "notice": "Completes the stake process by providing the merkle proof        instead of unlockSecret. In case the facilitator process is not        able to complete the stake and mint process then this is an        alternative approach to complete the process"
      },
      "progressUnstake(bytes32,bytes32)": {
        "notice": "Complete unstake."
      },
      "progressUnstakeWithProof(bytes32,bytes,uint256,uint256)": {
        "notice": "Completes the redeem process by providing the merkle proof        instead of unlockSecret. In case the facilitator process is not        able to complete the redeem and unstake process then this is an        alternative approach to complete the process"
      },
      "proveGateway(uint256,bytes,bytes)": {
        "notice": "This can be called by anyone to verify merkle proof of         gateway/co-gateway contract address. Trust factor is brought by         state roots of the contract which implements StateRootInterface.         It's important to note that in replay calls of proveGateway         bytes _rlpParentNodes variable is not validated. In this case         input storage root derived from merkle proof account nodes is         verified with stored storage root of given blockHeight.         GatewayProven event has parameter wasAlreadyProved to         differentiate between first call and replay calls."
      },
      "revertStake(bytes32)": {
        "notice": "Revert stake process and get the stake        amount back. Only staker can revert stake by providing        penalty i.e. 1.5 times of bounty amount. On progress revert stake        penalty and facilitator bounty will be burned."
      },
      "stake(uint256,address,uint256,uint256,uint256,bytes32)": {
        "notice": "Initiates the stake process.  In order to stake the staker        needs to approve Gateway contract for stake amount.        Staked amount is transferred from staker address to        Gateway contract. Bounty amount is also transferred from staker."
      },
      "token()": {
        "notice": "Returns the value of valueToken."
      }
    },
    "notice": "EIP20Gateway act as medium to send messages from origin chain to        auxiliary chain. Currently gateway supports stake and revert stake message."
  }
}